{
  "contractName": "Passport",
  "abi": [
    {
      "inputs": [],
      "stateMutability": "nonpayable",
      "type": "constructor"
    },
    {
      "anonymous": false,
      "inputs": [
        {
          "indexed": false,
          "internalType": "uint256",
          "name": "_updateCount",
          "type": "uint256"
        }
      ],
      "name": "AutoImmunityUpdate",
      "type": "event"
    },
    {
      "anonymous": false,
      "inputs": [
        {
          "indexed": false,
          "internalType": "string",
          "name": "_subdivisionCode",
          "type": "string"
        },
        {
          "indexed": false,
          "internalType": "uint8",
          "name": "_age",
          "type": "uint8"
        }
      ],
      "name": "ImmuneCase",
      "type": "event"
    },
    {
      "anonymous": false,
      "inputs": [
        {
          "indexed": true,
          "internalType": "address",
          "name": "_address",
          "type": "address"
        },
        {
          "indexed": false,
          "internalType": "uint256",
          "name": "_amount",
          "type": "uint256"
        }
      ],
      "name": "Transfer",
      "type": "event"
    },
    {
      "anonymous": false,
      "inputs": [
        {
          "indexed": true,
          "internalType": "address",
          "name": "_address",
          "type": "address"
        }
      ],
      "name": "UnverifiedUser",
      "type": "event"
    },
    {
      "anonymous": false,
      "inputs": [
        {
          "indexed": true,
          "internalType": "address",
          "name": "_address",
          "type": "address"
        }
      ],
      "name": "VerifiedUser",
      "type": "event"
    },
    {
      "inputs": [],
      "name": "administrator",
      "outputs": [
        {
          "internalType": "address",
          "name": "",
          "type": "address"
        }
      ],
      "stateMutability": "view",
      "type": "function",
      "constant": true
    },
    {
      "inputs": [
        {
          "internalType": "uint256",
          "name": "",
          "type": "uint256"
        }
      ],
      "name": "entries",
      "outputs": [
        {
          "internalType": "bytes32",
          "name": "",
          "type": "bytes32"
        }
      ],
      "stateMutability": "view",
      "type": "function",
      "constant": true
    },
    {
      "inputs": [],
      "name": "entryCount",
      "outputs": [
        {
          "internalType": "uint256",
          "name": "",
          "type": "uint256"
        }
      ],
      "stateMutability": "view",
      "type": "function",
      "constant": true
    },
    {
      "inputs": [],
      "name": "lastAutoUpdate",
      "outputs": [
        {
          "internalType": "uint256",
          "name": "",
          "type": "uint256"
        }
      ],
      "stateMutability": "view",
      "type": "function",
      "constant": true
    },
    {
      "inputs": [
        {
          "internalType": "bytes32",
          "name": "",
          "type": "bytes32"
        }
      ],
      "name": "passports",
      "outputs": [
        {
          "internalType": "string",
          "name": "subdivisionCode",
          "type": "string"
        },
        {
          "internalType": "uint8",
          "name": "age",
          "type": "uint8"
        },
        {
          "internalType": "bool",
          "name": "immunity",
          "type": "bool"
        },
        {
          "internalType": "uint256",
          "name": "immuneTime",
          "type": "uint256"
        }
      ],
      "stateMutability": "view",
      "type": "function",
      "constant": true
    },
    {
      "inputs": [
        {
          "internalType": "address",
          "name": "_address",
          "type": "address"
        }
      ],
      "name": "addVerifiedUser",
      "outputs": [],
      "stateMutability": "nonpayable",
      "type": "function"
    },
    {
      "inputs": [
        {
          "internalType": "address",
          "name": "_address",
          "type": "address"
        }
      ],
      "name": "removeVerifiedUser",
      "outputs": [],
      "stateMutability": "nonpayable",
      "type": "function"
    },
    {
      "inputs": [
        {
          "internalType": "address payable",
          "name": "_address",
          "type": "address"
        }
      ],
      "name": "topUp",
      "outputs": [],
      "stateMutability": "payable",
      "type": "function",
      "payable": true
    },
    {
      "inputs": [
        {
          "internalType": "address",
          "name": "_address",
          "type": "address"
        }
      ],
      "name": "isVerified",
      "outputs": [
        {
          "internalType": "bool",
          "name": "",
          "type": "bool"
        }
      ],
      "stateMutability": "view",
      "type": "function",
      "constant": true
    },
    {
      "inputs": [
        {
          "internalType": "bytes32",
          "name": "_hash",
          "type": "bytes32"
        },
        {
          "internalType": "string",
          "name": "_subdivisionCode",
          "type": "string"
        },
        {
          "internalType": "uint8",
          "name": "_age",
          "type": "uint8"
        },
        {
          "internalType": "bool",
          "name": "_immunityStatus",
          "type": "bool"
        }
      ],
      "name": "addCitizen",
      "outputs": [],
      "stateMutability": "nonpayable",
      "type": "function"
    },
    {
      "inputs": [
        {
          "internalType": "bytes32",
          "name": "_hash",
          "type": "bytes32"
        }
      ],
      "name": "isImmune",
      "outputs": [
        {
          "internalType": "bool",
          "name": "",
          "type": "bool"
        }
      ],
      "stateMutability": "view",
      "type": "function",
      "constant": true
    },
    {
      "inputs": [
        {
          "internalType": "bytes32",
          "name": "_hash",
          "type": "bytes32"
        },
        {
          "internalType": "bool",
          "name": "_immunityStatus",
          "type": "bool"
        }
      ],
      "name": "updateImmunity",
      "outputs": [],
      "stateMutability": "nonpayable",
      "type": "function"
    },
    {
      "inputs": [],
      "name": "autoUpdateImmunity",
      "outputs": [],
      "stateMutability": "nonpayable",
      "type": "function"
    },
    {
      "inputs": [],
      "name": "addTestingCitizens",
      "outputs": [],
      "stateMutability": "nonpayable",
      "type": "function"
    }
  ],
  "bytecode": "0x60806040526000600455600060055534801561001a57600080fd5b50336000806101000a81548173ffffffffffffffffffffffffffffffffffffffff021916908373ffffffffffffffffffffffffffffffffffffffff16021790555060018060003373ffffffffffffffffffffffffffffffffffffffff1673ffffffffffffffffffffffffffffffffffffffff16815260200190815260200160002060006101000a81548160ff021916908315150217905550426005819055506114ca806100c86000396000f3fe6080604052600436106100dd5760003560e01c806388e3c5d61161007f578063b9209e3311610059578063b9209e33146103cd578063e0bf156b14610434578063f53d0a8e14610485578063fb51ed4e146104c6576100dd565b806388e3c5d6146103025780638c7ade4614610353578063b30906d41461037e576100dd565b806325cb98d5116100bb57806325cb98d51461019857806347d16294146101e95780635613d6c01461020057806371b10389146102eb576100dd565b80630cbb0f83146100e25780631bbed3211461010d5780631edb8f7214610151575b600080fd5b3480156100ee57600080fd5b506100f7610594565b6040518082815260200191505060405180910390f35b61014f6004803603602081101561012357600080fd5b81019080803573ffffffffffffffffffffffffffffffffffffffff16906020019092919050505061059a565b005b34801561015d57600080fd5b506101966004803603604081101561017457600080fd5b8101908080359060200190929190803515159060200190929190505050610699565b005b3480156101a457600080fd5b506101e7600480360360208110156101bb57600080fd5b81019080803573ffffffffffffffffffffffffffffffffffffffff169060200190929190505050610799565b005b3480156101f557600080fd5b506101fe61088f565b005b34801561020c57600080fd5b506102e96004803603608081101561022357600080fd5b81019080803590602001909291908035906020019064010000000081111561024a57600080fd5b82018360208201111561025c57600080fd5b8035906020019184600183028401116401000000008311171561027e57600080fd5b91908080601f016020809104026020016040519081016040528093929190818152602001838380828437600081840152601f19601f820116905080830192505050505050509192919290803560ff169060200190929190803515159060200190929190505050610a47565b005b3480156102f757600080fd5b50610300610c69565b005b34801561030e57600080fd5b506103516004803603602081101561032557600080fd5b81019080803573ffffffffffffffffffffffffffffffffffffffff1690602001909291905050506110be565b005b34801561035f57600080fd5b506103686111b8565b6040518082815260200191505060405180910390f35b34801561038a57600080fd5b506103b7600480360360208110156103a157600080fd5b81019080803590602001909291905050506111be565b6040518082815260200191505060405180910390f35b3480156103d957600080fd5b5061041c600480360360208110156103f057600080fd5b81019080803573ffffffffffffffffffffffffffffffffffffffff1690602001909291905050506111d6565b60405180821515815260200191505060405180910390f35b34801561044057600080fd5b5061046d6004803603602081101561045757600080fd5b8101908080359060200190929190505050611289565b60405180821515815260200191505060405180910390f35b34801561049157600080fd5b5061049a6112b6565b604051808273ffffffffffffffffffffffffffffffffffffffff16815260200191505060405180910390f35b3480156104d257600080fd5b506104ff600480360360208110156104e957600080fd5b81019080803590602001909291905050506112da565b60405180806020018560ff1681526020018415158152602001838152602001828103825286818151815260200191508051906020019080838360005b8381101561055657808201518184015260208101905061053b565b50505050905090810190601f1680156105835780820380516001836020036101000a031916815260200191505b509550505050505060405180910390f35b60045481565b60008054906101000a900473ffffffffffffffffffffffffffffffffffffffff1673ffffffffffffffffffffffffffffffffffffffff163373ffffffffffffffffffffffffffffffffffffffff16146105f257600080fd5b6105fb816111d6565b15610696578073ffffffffffffffffffffffffffffffffffffffff166108fc349081150290604051600060405180830381858888f19350505050158015610646573d6000803e3d6000fd5b508073ffffffffffffffffffffffffffffffffffffffff167f69ca02dd4edd7bf0a4abb9ed3b7af3f14778db5d61921c7dc7cd545266326de2346040518082815260200191505060405180910390a25b50565b60011515600160003373ffffffffffffffffffffffffffffffffffffffff1673ffffffffffffffffffffffffffffffffffffffff16815260200190815260200160002060009054906101000a900460ff161515146106f657600080fd5b801561074a57806002600084815260200190815260200160002060010160016101000a81548160ff021916908315150217905550426002600084815260200190815260200160002060020181905550610795565b806002600084815260200190815260200160002060010160016101000a81548160ff021916908315150217905550600060026000848152602001908152602001600020600201819055505b5050565b60008054906101000a900473ffffffffffffffffffffffffffffffffffffffff1673ffffffffffffffffffffffffffffffffffffffff163373ffffffffffffffffffffffffffffffffffffffff16146107f157600080fd5b6000600160008373ffffffffffffffffffffffffffffffffffffffff1673ffffffffffffffffffffffffffffffffffffffff16815260200190815260200160002060006101000a81548160ff0219169083151502179055508073ffffffffffffffffffffffffffffffffffffffff167f4f4bd6fc6a67e248b443f4a8f9b9e3d979fbe3f7a38206c03b1a83d8284539e060405160405180910390a250565b60011515600160003373ffffffffffffffffffffffffffffffffffffffff1673ffffffffffffffffffffffffffffffffffffffff16815260200190815260200160002060009054906101000a900460ff161515146108ec57600080fd5b60004260058054011015610a44576000600190505b6004548111610a0b5760011515600260006003600085815260200190815260200160002054815260200190815260200160002060010160019054906101000a900460ff16151514801561097f575042601e60026000600360008681526020019081526020016000205481526020019081526020016000206002015401105b156109fe576000600260006003600085815260200190815260200160002054815260200190815260200160002060010160016101000a81548160ff021916908315150217905550600060026000600360008581526020019081526020016000205481526020019081526020016000206002018190555081806001019250505b8080600101915050610901565b507fb7d7f3ecc42af6ba78e856baa55648b085b27a4835ed3b3bca39a769629d0bda816040518082815260200191505060405180910390a15b50565b60011515600160003373ffffffffffffffffffffffffffffffffffffffff1673ffffffffffffffffffffffffffffffffffffffff16815260200190815260200160002060009054906101000a900460ff16151514610aa457600080fd5b610aac6113bc565b84600360006004548152602001908152602001600020819055508115610af95760405180608001604052808581526020018460ff1681526020018315158152602001428152509050610b23565b60405180608001604052808581526020018460ff1681526020018315158152602001600081525090505b80600260008781526020019081526020016000206000820151816000019080519060200190610b539291906113e9565b5060208201518160010160006101000a81548160ff021916908360ff16021790555060408201518160010160016101000a81548160ff021916908315150217905550606082015181600201559050506004600081548092919060010191905055508115610c62577fef48ce3c8f1b313390ea711fb9c29a6595582a44275a5977f70c7884fe9a0f08848460405180806020018360ff168152602001828103825284818151815260200191508051906020019080838360005b83811015610c26578082015181840152602081019050610c0b565b50505050905090810190601f168015610c535780820380516001836020036101000a031916815260200191505b50935050505060405180910390a15b5050505050565b60008054906101000a900473ffffffffffffffffffffffffffffffffffffffff1673ffffffffffffffffffffffffffffffffffffffff163373ffffffffffffffffffffffffffffffffffffffff1614610cc157600080fd5b610d267f3ac225168df54212a25c1c01fd35bebfea408fdac2e31ddd6f80a4bbf9a5f1cb60001b6040518060400160405280600781526020017f454e472d41414100000000000000000000000000000000000000000000000000815250600180610a47565b610d8c7f67fad3bfa1e0321bd021ca805ce14876e50acac8ca8532eda8cbf924da56516060001b6040518060400160405280600781526020017f454e472d4242420000000000000000000000000000000000000000000000000081525060026001610a47565b610df27f4e03657aea45a94fc7d47ba826c8d667c0d1e6e33a64a036ec44f58fa12d6c4560001b6040518060400160405280600781526020017f454e472d4343430000000000000000000000000000000000000000000000000081525060036000610a47565b610e587f48bed44d1bcd124a28c27f343a817e5f5243190d3c52bf347daf876de1dbbf7760001b6040518060400160405280600781526020017f454e472d4444440000000000000000000000000000000000000000000000000081525060046001610a47565b610ebe7f6377c7e66081cb65e473c1b95db5195a27d04a7108b468890224bedbe1a8a6eb60001b6040518060400160405280600781526020017f454e472d4545450000000000000000000000000000000000000000000000000081525060056000610a47565b610f247facd0c377fe36d5b209125185bc3ac41155ed1bf7103ef9f0c2aff4320460b6df60001b6040518060400160405280600781526020017f454e472d4646460000000000000000000000000000000000000000000000000081525060066000610a47565b610f8a7fa82aec019867b7307551dc397acde18b541e742fa1a4e53df4ce3b02d462f52460001b6040518060400160405280600781526020017f454e472d4747470000000000000000000000000000000000000000000000000081525060076000610a47565b610ff07f48624fa43c68d5c552855a4e2919e74645f683f5384f72b5b051b71ea41d4f2d60001b6040518060400160405280600781526020017f454e472d4848480000000000000000000000000000000000000000000000000081525060086001610a47565b6110567f34fb2702da7001bf4dbf26a1e4cf31044bd95b85e1017596ee2d23aedc90498b60001b6040518060400160405280600781526020017f454e472d4949490000000000000000000000000000000000000000000000000081525060096001610a47565b6110bc7ff8da54b5a7dd75028acb077ee61e8dde47ed37c746703ce764edf4a789eb210360001b6040518060400160405280600781526020017f454e472d4a4a4a00000000000000000000000000000000000000000000000000815250600a6000610a47565b565b60011515600160003373ffffffffffffffffffffffffffffffffffffffff1673ffffffffffffffffffffffffffffffffffffffff16815260200190815260200160002060009054906101000a900460ff1615151461111b57600080fd5b60018060008373ffffffffffffffffffffffffffffffffffffffff1673ffffffffffffffffffffffffffffffffffffffff16815260200190815260200160002060006101000a81548160ff0219169083151502179055508073ffffffffffffffffffffffffffffffffffffffff167f7326a4b0242e24d5a2706cbd8418aaf98674c16c263d222c7e4d8e41539e9ec560405160405180910390a250565b60055481565b60036020528060005260406000206000915090505481565b600060011515600160003373ffffffffffffffffffffffffffffffffffffffff1673ffffffffffffffffffffffffffffffffffffffff16815260200190815260200160002060009054906101000a900460ff1615151461123557600080fd5b600160008373ffffffffffffffffffffffffffffffffffffffff1673ffffffffffffffffffffffffffffffffffffffff16815260200190815260200160002060009054906101000a900460ff169050919050565b60006002600083815260200190815260200160002060010160019054906101000a900460ff169050919050565b60008054906101000a900473ffffffffffffffffffffffffffffffffffffffff1681565b6002602052806000526040600020600091509050806000018054600181600116156101000203166002900480601f0160208091040260200160405190810160405280929190818152602001828054600181600116156101000203166002900480156113865780601f1061135b57610100808354040283529160200191611386565b820191906000526020600020905b81548152906001019060200180831161136957829003601f168201915b5050505050908060010160009054906101000a900460ff16908060010160019054906101000a900460ff16908060020154905084565b604051806080016040528060608152602001600060ff168152602001600015158152602001600081525090565b828054600181600116156101000203166002900490600052602060002090601f01602090048101928261141f5760008555611466565b82601f1061143857805160ff1916838001178555611466565b82800160010185558215611466579182015b8281111561146557825182559160200191906001019061144a565b5b5090506114739190611477565b5090565b5b80821115611490576000816000905550600101611478565b509056fea2646970667358221220e78d79c5ede9415dcbb3ba7bc5e5b4b4500c288485702bfcab0f4428fdd64d1e64736f6c63430007040033",
  "immutableReferences": {},
  "source": "// SPDX-License-Identifier: UNLICENSED\npragma solidity ^0.7.4;\n\ncontract Passport {\n    address public administrator; // address of who deployed the contract (admin access for certain operations)\n    mapping(address => bool) verifiedUsers; // mapping of verified users\n    mapping(bytes32 => Citizen) public passports; // map hashes to citizens (wont be public in final implementation)\n    mapping(uint256 => bytes32) public entries;\n    uint256 public entryCount = 0;\n    uint256 public lastAutoUpdate = 0;\n\n    struct Citizen {\n        string subdivisionCode; // store county code of citizen eg (GB-NBL = Northumberland)\n        uint8 age;\n        bool immunity; // a bool to represent immunity (true = immune)\n        uint256 immuneTime;\n    }\n\n    constructor() {\n        administrator = msg.sender;\n        verifiedUsers[msg.sender] = true;\n        lastAutoUpdate = block.timestamp;\n    }\n\n    modifier admin() {\n        require(msg.sender == administrator);\n        _;\n    }\n\n    modifier verified() {\n        require(verifiedUsers[msg.sender] == true);\n        _;\n    }\n\n    function addVerifiedUser(address _address) public verified {\n        verifiedUsers[_address] = true;\n        emit VerifiedUser(_address);\n    }\n\n    function removeVerifiedUser(address _address) public admin {\n        verifiedUsers[_address] = false;\n        emit UnverifiedUser(_address);\n    }\n\n    function topUp(address payable _address) public payable admin {\n        if (isVerified(_address)) {\n            _address.transfer(msg.value);\n            emit Transfer(_address, msg.value);\n        }\n    }\n\n    function isVerified(address _address) public view verified returns (bool) {\n        return verifiedUsers[_address];\n    }\n\n    function addCitizen(\n        bytes32 _hash,\n        string memory _subdivisionCode,\n        uint8 _age,\n        bool _immunityStatus\n    ) public verified {\n        Citizen memory newCitizen;\n        entries[entryCount] = _hash;\n        if (_immunityStatus) {\n            newCitizen = Citizen(\n                _subdivisionCode,\n                _age,\n                _immunityStatus,\n                block.timestamp\n            );\n        } else {\n            newCitizen = Citizen(_subdivisionCode, _age, _immunityStatus, 0);\n        }\n        passports[_hash] = newCitizen;\n        entryCount++;\n        if (_immunityStatus) {\n            emit ImmuneCase(_subdivisionCode, _age);\n        }\n    }\n\n    // function removeCitizen(bytes32 _hash) public verified {\n    //     // delete the entry from entries and shift all entries down 1\n    //     if (bytes(passports[_hash].subdivisionCode).length != 0) {\n    //         // if an entry doesnt exist, it has contains. this check ensures you are deleting an entry which exists, if subdivisioncode length is 0 then an entry doesnt exist.\n    //         for (\n    //             uint256 i = passports[_hash].entrynumber;\n    //             i <= entryCount;\n    //             i++\n    //         ) {\n    //             entries[i] = entries[i + 1];\n    //         }\n    //         delete entries[entryCount]; // delete the final entry\n    //         entryCount--;\n\n    //         delete passports[_hash];\n    //     }\n    // }\n\n    function isImmune(bytes32 _hash) public view returns (bool) {\n        return passports[_hash].immunity;\n    }\n\n    function updateImmunity(bytes32 _hash, bool _immunityStatus)\n        public\n        verified\n    {\n        if (_immunityStatus) {\n            passports[_hash].immunity = _immunityStatus;\n            passports[_hash].immuneTime = block.timestamp;\n        } else {\n            passports[_hash].immunity = _immunityStatus;\n            passports[_hash].immuneTime = 0;\n        }\n    }\n\n    function autoUpdateImmunity() public verified {\n        uint256 updateCount = 0;\n        if (lastAutoUpdate + 5 < block.timestamp) {\n            for (uint256 i = 1; i <= entryCount; i++) {\n                if (\n                    passports[entries[i]].immunity == true &&\n                    passports[entries[i]].immuneTime + 30 < block.timestamp\n                ) {\n                    // change immunity of citizen if they are immune and the set time period has past (in seconds)\n                    passports[entries[i]].immunity = false;\n                    passports[entries[i]].immuneTime = 0;\n                    updateCount++;\n                }\n            }\n            emit AutoImmunityUpdate(updateCount);\n        }\n    }\n\n    event Transfer(address indexed _address, uint256 _amount);\n    event VerifiedUser(address indexed _address);\n    event UnverifiedUser(address indexed _address);\n    event ImmuneCase(string _subdivisionCode, uint8 _age);\n    event AutoImmunityUpdate(uint256 _updateCount);\n\n    function addTestingCitizens() public admin {\n        // temporary testing function to populate citizens\n\n        addCitizen(\n            0x3ac225168df54212a25c1c01fd35bebfea408fdac2e31ddd6f80a4bbf9a5f1cb,\n            \"ENG-AAA\",\n            1,\n            true\n        );\n\n        addCitizen(\n            0x67fad3bfa1e0321bd021ca805ce14876e50acac8ca8532eda8cbf924da565160,\n            \"ENG-BBB\",\n            2,\n            true\n        );\n        addCitizen(\n            0x4e03657aea45a94fc7d47ba826c8d667c0d1e6e33a64a036ec44f58fa12d6c45,\n            \"ENG-CCC\",\n            3,\n            false\n        );\n        addCitizen(\n            0x48bed44d1bcd124a28c27f343a817e5f5243190d3c52bf347daf876de1dbbf77,\n            \"ENG-DDD\",\n            4,\n            true\n        );\n        addCitizen(\n            0x6377c7e66081cb65e473c1b95db5195a27d04a7108b468890224bedbe1a8a6eb,\n            \"ENG-EEE\",\n            5,\n            false\n        );\n        addCitizen(\n            0xacd0c377fe36d5b209125185bc3ac41155ed1bf7103ef9f0c2aff4320460b6df,\n            \"ENG-FFF\",\n            6,\n            false\n        );\n        addCitizen(\n            0xa82aec019867b7307551dc397acde18b541e742fa1a4e53df4ce3b02d462f524,\n            \"ENG-GGG\",\n            7,\n            false\n        );\n        addCitizen(\n            0x48624fa43c68d5c552855a4e2919e74645f683f5384f72b5b051b71ea41d4f2d,\n            \"ENG-HHH\",\n            8,\n            true\n        );\n        addCitizen(\n            0x34fb2702da7001bf4dbf26a1e4cf31044bd95b85e1017596ee2d23aedc90498b,\n            \"ENG-III\",\n            9,\n            true\n        );\n        addCitizen(\n            0xf8da54b5a7dd75028acb077ee61e8dde47ed37c746703ce764edf4a789eb2103,\n            \"ENG-JJJ\",\n            10,\n            false\n        );\n    }\n}\n",
  "sourcePath": "/Users/josh/Projects/ethereum/covid-pass/contracts/Passport.sol",
  "compiler": {
    "name": "solc",
    "version": "0.7.4+commit.3f05b770.Emscripten.clang"
  },
  "schemaVersion": "3.3.4",
  "updatedAt": "2021-03-10T13:58:23.174Z",
  "networkType": "ethereum",
  "devdoc": {
    "kind": "dev",
    "methods": {},
    "version": 1
  },
  "userdoc": {
    "kind": "user",
    "methods": {},
    "version": 1
  }
}