{
  "contractName": "Passport",
  "abi": [
    {
      "inputs": [],
      "stateMutability": "nonpayable",
      "type": "constructor"
    },
    {
      "anonymous": false,
      "inputs": [
        {
          "indexed": false,
          "internalType": "uint256",
          "name": "_updateCount",
          "type": "uint256"
        }
      ],
      "name": "AutoImmunityUpdate",
      "type": "event"
    },
    {
      "anonymous": false,
      "inputs": [
        {
          "indexed": false,
          "internalType": "string",
          "name": "_postcode",
          "type": "string"
        },
        {
          "indexed": false,
          "internalType": "uint8",
          "name": "_age",
          "type": "uint8"
        }
      ],
      "name": "ImmuneCase",
      "type": "event"
    },
    {
      "anonymous": false,
      "inputs": [
        {
          "indexed": true,
          "internalType": "address",
          "name": "_address",
          "type": "address"
        },
        {
          "indexed": false,
          "internalType": "uint256",
          "name": "_amount",
          "type": "uint256"
        }
      ],
      "name": "Transfer",
      "type": "event"
    },
    {
      "anonymous": false,
      "inputs": [
        {
          "indexed": true,
          "internalType": "address",
          "name": "_address",
          "type": "address"
        }
      ],
      "name": "UnverifiedUser",
      "type": "event"
    },
    {
      "anonymous": false,
      "inputs": [
        {
          "indexed": true,
          "internalType": "address",
          "name": "_address",
          "type": "address"
        }
      ],
      "name": "VerifiedUser",
      "type": "event"
    },
    {
      "inputs": [],
      "name": "administrator",
      "outputs": [
        {
          "internalType": "address",
          "name": "",
          "type": "address"
        }
      ],
      "stateMutability": "view",
      "type": "function",
      "constant": true
    },
    {
      "inputs": [
        {
          "internalType": "uint256",
          "name": "",
          "type": "uint256"
        }
      ],
      "name": "entries",
      "outputs": [
        {
          "internalType": "bytes32",
          "name": "",
          "type": "bytes32"
        }
      ],
      "stateMutability": "view",
      "type": "function",
      "constant": true
    },
    {
      "inputs": [],
      "name": "entryCount",
      "outputs": [
        {
          "internalType": "uint256",
          "name": "",
          "type": "uint256"
        }
      ],
      "stateMutability": "view",
      "type": "function",
      "constant": true
    },
    {
      "inputs": [],
      "name": "lastAutoUpdate",
      "outputs": [
        {
          "internalType": "uint256",
          "name": "",
          "type": "uint256"
        }
      ],
      "stateMutability": "view",
      "type": "function",
      "constant": true
    },
    {
      "inputs": [
        {
          "internalType": "bytes32",
          "name": "",
          "type": "bytes32"
        }
      ],
      "name": "passports",
      "outputs": [
        {
          "internalType": "string",
          "name": "postcode",
          "type": "string"
        },
        {
          "internalType": "uint8",
          "name": "age",
          "type": "uint8"
        },
        {
          "internalType": "bool",
          "name": "immunity",
          "type": "bool"
        },
        {
          "internalType": "uint256",
          "name": "immuneTime",
          "type": "uint256"
        }
      ],
      "stateMutability": "view",
      "type": "function",
      "constant": true
    },
    {
      "inputs": [
        {
          "internalType": "address",
          "name": "_address",
          "type": "address"
        }
      ],
      "name": "addVerifiedUser",
      "outputs": [],
      "stateMutability": "nonpayable",
      "type": "function"
    },
    {
      "inputs": [
        {
          "internalType": "address",
          "name": "_address",
          "type": "address"
        }
      ],
      "name": "removeVerifiedUser",
      "outputs": [],
      "stateMutability": "nonpayable",
      "type": "function"
    },
    {
      "inputs": [
        {
          "internalType": "address payable",
          "name": "_address",
          "type": "address"
        }
      ],
      "name": "topUp",
      "outputs": [],
      "stateMutability": "payable",
      "type": "function",
      "payable": true
    },
    {
      "inputs": [
        {
          "internalType": "address",
          "name": "_address",
          "type": "address"
        }
      ],
      "name": "isVerified",
      "outputs": [
        {
          "internalType": "bool",
          "name": "",
          "type": "bool"
        }
      ],
      "stateMutability": "view",
      "type": "function",
      "constant": true
    },
    {
      "inputs": [
        {
          "internalType": "bytes32",
          "name": "_hash",
          "type": "bytes32"
        },
        {
          "internalType": "string",
          "name": "_postcode",
          "type": "string"
        },
        {
          "internalType": "uint8",
          "name": "_age",
          "type": "uint8"
        },
        {
          "internalType": "bool",
          "name": "_immunityStatus",
          "type": "bool"
        }
      ],
      "name": "addCitizen",
      "outputs": [],
      "stateMutability": "nonpayable",
      "type": "function"
    },
    {
      "inputs": [
        {
          "internalType": "bytes32",
          "name": "_hash",
          "type": "bytes32"
        }
      ],
      "name": "removeCitizen",
      "outputs": [],
      "stateMutability": "nonpayable",
      "type": "function"
    },
    {
      "inputs": [
        {
          "internalType": "bytes32",
          "name": "_hash",
          "type": "bytes32"
        }
      ],
      "name": "isImmune",
      "outputs": [
        {
          "internalType": "bool",
          "name": "",
          "type": "bool"
        }
      ],
      "stateMutability": "view",
      "type": "function",
      "constant": true
    },
    {
      "inputs": [
        {
          "internalType": "bytes32",
          "name": "_hash",
          "type": "bytes32"
        },
        {
          "internalType": "bool",
          "name": "_immunityStatus",
          "type": "bool"
        }
      ],
      "name": "updateImmunity",
      "outputs": [],
      "stateMutability": "nonpayable",
      "type": "function"
    },
    {
      "inputs": [],
      "name": "autoUpdateImmunity",
      "outputs": [],
      "stateMutability": "nonpayable",
      "type": "function"
    },
    {
      "inputs": [],
      "name": "addTestingCitizens",
      "outputs": [],
      "stateMutability": "nonpayable",
      "type": "function"
    }
  ],
  "bytecode": "0x60806040526000600455600060055534801561001a57600080fd5b50336000806101000a81548173ffffffffffffffffffffffffffffffffffffffff021916908373ffffffffffffffffffffffffffffffffffffffff16021790555060018060003373ffffffffffffffffffffffffffffffffffffffff1673ffffffffffffffffffffffffffffffffffffffff16815260200190815260200160002060006101000a81548160ff02191690831515021790555042600581905550611609806100c86000396000f3fe6080604052600436106100e85760003560e01c806377ff6da91161008a578063b9209e3311610059578063b9209e3314610413578063e0bf156b1461047a578063f53d0a8e146104cb578063fb51ed4e1461050c576100e8565b806377ff6da91461030d57806388e3c5d6146103485780638c7ade4614610399578063b30906d4146103c4576100e8565b806325cb98d5116100c657806325cb98d5146101a357806347d16294146101f45780635613d6c01461020b57806371b10389146102f6576100e8565b80630cbb0f83146100ed5780631bbed321146101185780631edb8f721461015c575b600080fd5b3480156100f957600080fd5b506101026105da565b6040518082815260200191505060405180910390f35b61015a6004803603602081101561012e57600080fd5b81019080803573ffffffffffffffffffffffffffffffffffffffff1690602001909291905050506105e0565b005b34801561016857600080fd5b506101a16004803603604081101561017f57600080fd5b81019080803590602001909291908035151590602001909291905050506106df565b005b3480156101af57600080fd5b506101f2600480360360208110156101c657600080fd5b81019080803573ffffffffffffffffffffffffffffffffffffffff1690602001909291905050506107df565b005b34801561020057600080fd5b506102096108d5565b005b34801561021757600080fd5b506102f46004803603608081101561022e57600080fd5b81019080803590602001909291908035906020019064010000000081111561025557600080fd5b82018360208201111561026757600080fd5b8035906020019184600183028401116401000000008311171561028957600080fd5b91908080601f016020809104026020016040519081016040528093929190818152602001838380828437600081840152601f19601f820116905080830192505050505050509192919290803560ff169060200190929190803515159060200190929190505050610a8d565b005b34801561030257600080fd5b5061030b610caf565b005b34801561031957600080fd5b506103466004803603602081101561033057600080fd5b8101908080359060200190929190505050611104565b005b34801561035457600080fd5b506103976004803603602081101561036b57600080fd5b81019080803573ffffffffffffffffffffffffffffffffffffffff1690602001909291905050506111fd565b005b3480156103a557600080fd5b506103ae6112f7565b6040518082815260200191505060405180910390f35b3480156103d057600080fd5b506103fd600480360360208110156103e757600080fd5b81019080803590602001909291905050506112fd565b6040518082815260200191505060405180910390f35b34801561041f57600080fd5b506104626004803603602081101561043657600080fd5b81019080803573ffffffffffffffffffffffffffffffffffffffff169060200190929190505050611315565b60405180821515815260200191505060405180910390f35b34801561048657600080fd5b506104b36004803603602081101561049d57600080fd5b81019080803590602001909291905050506113c8565b60405180821515815260200191505060405180910390f35b3480156104d757600080fd5b506104e06113f5565b604051808273ffffffffffffffffffffffffffffffffffffffff16815260200191505060405180910390f35b34801561051857600080fd5b506105456004803603602081101561052f57600080fd5b8101908080359060200190929190505050611419565b60405180806020018560ff1681526020018415158152602001838152602001828103825286818151815260200191508051906020019080838360005b8381101561059c578082015181840152602081019050610581565b50505050905090810190601f1680156105c95780820380516001836020036101000a031916815260200191505b509550505050505060405180910390f35b60045481565b60008054906101000a900473ffffffffffffffffffffffffffffffffffffffff1673ffffffffffffffffffffffffffffffffffffffff163373ffffffffffffffffffffffffffffffffffffffff161461063857600080fd5b61064181611315565b156106dc578073ffffffffffffffffffffffffffffffffffffffff166108fc349081150290604051600060405180830381858888f1935050505015801561068c573d6000803e3d6000fd5b508073ffffffffffffffffffffffffffffffffffffffff167f69ca02dd4edd7bf0a4abb9ed3b7af3f14778db5d61921c7dc7cd545266326de2346040518082815260200191505060405180910390a25b50565b60011515600160003373ffffffffffffffffffffffffffffffffffffffff1673ffffffffffffffffffffffffffffffffffffffff16815260200190815260200160002060009054906101000a900460ff1615151461073c57600080fd5b801561079057806002600084815260200190815260200160002060010160016101000a81548160ff0219169083151502179055504260026000848152602001908152602001600020600201819055506107db565b806002600084815260200190815260200160002060010160016101000a81548160ff021916908315150217905550600060026000848152602001908152602001600020600201819055505b5050565b60008054906101000a900473ffffffffffffffffffffffffffffffffffffffff1673ffffffffffffffffffffffffffffffffffffffff163373ffffffffffffffffffffffffffffffffffffffff161461083757600080fd5b6000600160008373ffffffffffffffffffffffffffffffffffffffff1673ffffffffffffffffffffffffffffffffffffffff16815260200190815260200160002060006101000a81548160ff0219169083151502179055508073ffffffffffffffffffffffffffffffffffffffff167f4f4bd6fc6a67e248b443f4a8f9b9e3d979fbe3f7a38206c03b1a83d8284539e060405160405180910390a250565b60011515600160003373ffffffffffffffffffffffffffffffffffffffff1673ffffffffffffffffffffffffffffffffffffffff16815260200190815260200160002060009054906101000a900460ff1615151461093257600080fd5b60004260058054011015610a8a576000600190505b6004548111610a515760011515600260006003600085815260200190815260200160002054815260200190815260200160002060010160019054906101000a900460ff1615151480156109c5575042601e60026000600360008681526020019081526020016000205481526020019081526020016000206002015401105b15610a44576000600260006003600085815260200190815260200160002054815260200190815260200160002060010160016101000a81548160ff021916908315150217905550600060026000600360008581526020019081526020016000205481526020019081526020016000206002018190555081806001019250505b8080600101915050610947565b507fb7d7f3ecc42af6ba78e856baa55648b085b27a4835ed3b3bca39a769629d0bda816040518082815260200191505060405180910390a15b50565b60011515600160003373ffffffffffffffffffffffffffffffffffffffff1673ffffffffffffffffffffffffffffffffffffffff16815260200190815260200160002060009054906101000a900460ff16151514610aea57600080fd5b610af26114fb565b84600360006004548152602001908152602001600020819055508115610b3f5760405180608001604052808581526020018460ff1681526020018315158152602001428152509050610b69565b60405180608001604052808581526020018460ff1681526020018315158152602001600081525090505b80600260008781526020019081526020016000206000820151816000019080519060200190610b99929190611528565b5060208201518160010160006101000a81548160ff021916908360ff16021790555060408201518160010160016101000a81548160ff021916908315150217905550606082015181600201559050506004600081548092919060010191905055508115610ca8577fef48ce3c8f1b313390ea711fb9c29a6595582a44275a5977f70c7884fe9a0f08848460405180806020018360ff168152602001828103825284818151815260200191508051906020019080838360005b83811015610c6c578082015181840152602081019050610c51565b50505050905090810190601f168015610c995780820380516001836020036101000a031916815260200191505b50935050505060405180910390a15b5050505050565b60008054906101000a900473ffffffffffffffffffffffffffffffffffffffff1673ffffffffffffffffffffffffffffffffffffffff163373ffffffffffffffffffffffffffffffffffffffff1614610d0757600080fd5b610d6c7f3ac225168df54212a25c1c01fd35bebfea408fdac2e31ddd6f80a4bbf9a5f1cb60001b6040518060400160405280600781526020017f4357392038553100000000000000000000000000000000000000000000000000815250600180610a8d565b610dd27f67fad3bfa1e0321bd021ca805ce14876e50acac8ca8532eda8cbf924da56516060001b6040518060400160405280600781526020017f435739203855320000000000000000000000000000000000000000000000000081525060026001610a8d565b610e387f4e03657aea45a94fc7d47ba826c8d667c0d1e6e33a64a036ec44f58fa12d6c4560001b6040518060400160405280600781526020017f435739203855330000000000000000000000000000000000000000000000000081525060036000610a8d565b610e9e7f48bed44d1bcd124a28c27f343a817e5f5243190d3c52bf347daf876de1dbbf7760001b6040518060400160405280600781526020017f435739203855340000000000000000000000000000000000000000000000000081525060046001610a8d565b610f047f6377c7e66081cb65e473c1b95db5195a27d04a7108b468890224bedbe1a8a6eb60001b6040518060400160405280600781526020017f435739203855350000000000000000000000000000000000000000000000000081525060056000610a8d565b610f6a7facd0c377fe36d5b209125185bc3ac41155ed1bf7103ef9f0c2aff4320460b6df60001b6040518060400160405280600781526020017f435739203855360000000000000000000000000000000000000000000000000081525060066000610a8d565b610fd07fa82aec019867b7307551dc397acde18b541e742fa1a4e53df4ce3b02d462f52460001b6040518060400160405280600781526020017f435739203855370000000000000000000000000000000000000000000000000081525060076000610a8d565b6110367f48624fa43c68d5c552855a4e2919e74645f683f5384f72b5b051b71ea41d4f2d60001b6040518060400160405280600781526020017f435739203855380000000000000000000000000000000000000000000000000081525060086001610a8d565b61109c7f34fb2702da7001bf4dbf26a1e4cf31044bd95b85e1017596ee2d23aedc90498b60001b6040518060400160405280600781526020017f435739203855390000000000000000000000000000000000000000000000000081525060096001610a8d565b6111027ff8da54b5a7dd75028acb077ee61e8dde47ed37c746703ce764edf4a789eb210360001b6040518060400160405280600781526020017f4357392038553000000000000000000000000000000000000000000000000000815250600a6000610a8d565b565b60011515600160003373ffffffffffffffffffffffffffffffffffffffff1673ffffffffffffffffffffffffffffffffffffffff16815260200190815260200160002060009054906101000a900460ff1615151461116157600080fd5b6040518060200160405280600081525060026000838152602001908152602001600020600001908051906020019061119a929190611528565b5060006002600083815260200190815260200160002060010160006101000a81548160ff021916908360ff16021790555060006002600083815260200190815260200160002060010160016101000a81548160ff02191690831515021790555050565b60011515600160003373ffffffffffffffffffffffffffffffffffffffff1673ffffffffffffffffffffffffffffffffffffffff16815260200190815260200160002060009054906101000a900460ff1615151461125a57600080fd5b60018060008373ffffffffffffffffffffffffffffffffffffffff1673ffffffffffffffffffffffffffffffffffffffff16815260200190815260200160002060006101000a81548160ff0219169083151502179055508073ffffffffffffffffffffffffffffffffffffffff167f7326a4b0242e24d5a2706cbd8418aaf98674c16c263d222c7e4d8e41539e9ec560405160405180910390a250565b60055481565b60036020528060005260406000206000915090505481565b600060011515600160003373ffffffffffffffffffffffffffffffffffffffff1673ffffffffffffffffffffffffffffffffffffffff16815260200190815260200160002060009054906101000a900460ff1615151461137457600080fd5b600160008373ffffffffffffffffffffffffffffffffffffffff1673ffffffffffffffffffffffffffffffffffffffff16815260200190815260200160002060009054906101000a900460ff169050919050565b60006002600083815260200190815260200160002060010160019054906101000a900460ff169050919050565b60008054906101000a900473ffffffffffffffffffffffffffffffffffffffff1681565b6002602052806000526040600020600091509050806000018054600181600116156101000203166002900480601f0160208091040260200160405190810160405280929190818152602001828054600181600116156101000203166002900480156114c55780601f1061149a576101008083540402835291602001916114c5565b820191906000526020600020905b8154815290600101906020018083116114a857829003601f168201915b5050505050908060010160009054906101000a900460ff16908060010160019054906101000a900460ff16908060020154905084565b604051806080016040528060608152602001600060ff168152602001600015158152602001600081525090565b828054600181600116156101000203166002900490600052602060002090601f01602090048101928261155e57600085556115a5565b82601f1061157757805160ff19168380011785556115a5565b828001600101855582156115a5579182015b828111156115a4578251825591602001919060010190611589565b5b5090506115b291906115b6565b5090565b5b808211156115cf5760008160009055506001016115b7565b509056fea2646970667358221220cdb8b93e02ec9371236ff028af2f326cc365f8b3a87183a871e82091f410bd5164736f6c63430007040033",
  "immutableReferences": {},
  "source": "// SPDX-License-Identifier: UNLICENSED\npragma solidity ^0.7.4;\n\ncontract Passport {\n    address public administrator; // address of who deployed the contract (admin access for certain operations)\n    mapping(address => bool) verifiedUsers; // mapping of verified users\n    mapping(bytes32 => Citizen) public passports; // map hashes to citizens (wont be public in final implementation)\n    mapping(uint256 => bytes32) public entries;\n    uint256 public entryCount = 0;\n    uint256 public lastAutoUpdate = 0;\n\n    struct Citizen {\n        string postcode; // store county code of citizen eg (GB-NBL = Northumberland)\n        uint8 age;\n        bool immunity; // a bool to represent immunity (true = immune)\n        uint256 immuneTime;\n    }\n\n    constructor() {\n        administrator = msg.sender;\n        verifiedUsers[msg.sender] = true;\n        lastAutoUpdate = block.timestamp;\n    }\n\n    modifier admin() {\n        require(msg.sender == administrator);\n        _;\n    }\n\n    modifier verified() {\n        require(verifiedUsers[msg.sender] == true);\n        _;\n    }\n\n    function addVerifiedUser(address _address) public verified {\n        verifiedUsers[_address] = true;\n        emit VerifiedUser(_address);\n    }\n\n    function removeVerifiedUser(address _address) public admin {\n        verifiedUsers[_address] = false;\n        emit UnverifiedUser(_address);\n    }\n\n    function topUp(address payable _address) public payable admin {\n        if (isVerified(_address)) {\n            _address.transfer(msg.value);\n            emit Transfer(_address, msg.value);\n        }\n    }\n\n    function isVerified(address _address) public view verified returns (bool) {\n        return verifiedUsers[_address];\n    }\n\n    function addCitizen(\n        bytes32 _hash,\n        string memory _postcode,\n        uint8 _age,\n        bool _immunityStatus\n    ) public verified {\n        Citizen memory newCitizen;\n        entries[entryCount] = _hash;\n        if (_immunityStatus) {\n            newCitizen = Citizen(\n                _postcode,\n                _age,\n                _immunityStatus,\n                block.timestamp\n            );\n        } else {\n            newCitizen = Citizen(_postcode, _age, _immunityStatus, 0);\n        }\n        passports[_hash] = newCitizen;\n        entryCount++;\n        if (_immunityStatus) {\n            emit ImmuneCase(_postcode, _age);\n        }\n    }\n\n    function removeCitizen(bytes32 _hash) public verified {\n        // remove data regarding _hash\n        passports[_hash].postcode = \"\";\n        passports[_hash].age = 0;\n        passports[_hash].immunity = false;\n    }\n\n    function isImmune(bytes32 _hash) public view returns (bool) {\n        return passports[_hash].immunity;\n    }\n\n    function updateImmunity(bytes32 _hash, bool _immunityStatus)\n        public\n        verified\n    {\n        if (_immunityStatus) {\n            passports[_hash].immunity = _immunityStatus;\n            passports[_hash].immuneTime = block.timestamp;\n        } else {\n            passports[_hash].immunity = _immunityStatus;\n            passports[_hash].immuneTime = 0;\n        }\n    }\n\n    function autoUpdateImmunity() public verified {\n        uint256 updateCount = 0;\n        if (lastAutoUpdate + 5 < block.timestamp) {\n            for (uint256 i = 1; i <= entryCount; i++) {\n                if (\n                    passports[entries[i]].immunity == true &&\n                    passports[entries[i]].immuneTime + 30 < block.timestamp\n                ) {\n                    // change immunity of citizen if they are immune and the set time period has past (in seconds)\n                    passports[entries[i]].immunity = false;\n                    passports[entries[i]].immuneTime = 0;\n                    updateCount++;\n                }\n            }\n            emit AutoImmunityUpdate(updateCount);\n        }\n    }\n\n    event Transfer(address indexed _address, uint256 _amount);\n    event VerifiedUser(address indexed _address);\n    event UnverifiedUser(address indexed _address);\n    event ImmuneCase(string _postcode, uint8 _age);\n    event AutoImmunityUpdate(uint256 _updateCount);\n\n    function addTestingCitizens() public admin {\n        // temporary testing function to populate citizens\n\n        addCitizen(\n            0x3ac225168df54212a25c1c01fd35bebfea408fdac2e31ddd6f80a4bbf9a5f1cb,\n            \"CW9 8U1\",\n            1,\n            true\n        );\n\n        addCitizen(\n            0x67fad3bfa1e0321bd021ca805ce14876e50acac8ca8532eda8cbf924da565160,\n            \"CW9 8U2\",\n            2,\n            true\n        );\n        addCitizen(\n            0x4e03657aea45a94fc7d47ba826c8d667c0d1e6e33a64a036ec44f58fa12d6c45,\n            \"CW9 8U3\",\n            3,\n            false\n        );\n        addCitizen(\n            0x48bed44d1bcd124a28c27f343a817e5f5243190d3c52bf347daf876de1dbbf77,\n            \"CW9 8U4\",\n            4,\n            true\n        );\n        addCitizen(\n            0x6377c7e66081cb65e473c1b95db5195a27d04a7108b468890224bedbe1a8a6eb,\n            \"CW9 8U5\",\n            5,\n            false\n        );\n        addCitizen(\n            0xacd0c377fe36d5b209125185bc3ac41155ed1bf7103ef9f0c2aff4320460b6df,\n            \"CW9 8U6\",\n            6,\n            false\n        );\n        addCitizen(\n            0xa82aec019867b7307551dc397acde18b541e742fa1a4e53df4ce3b02d462f524,\n            \"CW9 8U7\",\n            7,\n            false\n        );\n        addCitizen(\n            0x48624fa43c68d5c552855a4e2919e74645f683f5384f72b5b051b71ea41d4f2d,\n            \"CW9 8U8\",\n            8,\n            true\n        );\n        addCitizen(\n            0x34fb2702da7001bf4dbf26a1e4cf31044bd95b85e1017596ee2d23aedc90498b,\n            \"CW9 8U9\",\n            9,\n            true\n        );\n        addCitizen(\n            0xf8da54b5a7dd75028acb077ee61e8dde47ed37c746703ce764edf4a789eb2103,\n            \"CW9 8U0\",\n            10,\n            false\n        );\n    }\n}\n",
  "sourcePath": "/Users/josh/Projects/ethereum/covid-pass/contracts/Passport.sol",
  "compiler": {
    "name": "solc",
    "version": "0.7.4+commit.3f05b770.Emscripten.clang"
  },
  "schemaVersion": "3.3.4",
  "updatedAt": "2021-03-10T15:44:05.096Z",
  "networkType": "ethereum",
  "devdoc": {
    "kind": "dev",
    "methods": {},
    "version": 1
  },
  "userdoc": {
    "kind": "user",
    "methods": {},
    "version": 1
  }
}