{
  "contractName": "Passport",
  "abi": [
    {
      "inputs": [],
      "stateMutability": "nonpayable",
      "type": "constructor"
    },
    {
      "anonymous": false,
      "inputs": [
        {
          "indexed": true,
          "internalType": "address",
          "name": "_address",
          "type": "address"
        },
        {
          "indexed": false,
          "internalType": "uint256",
          "name": "_amount",
          "type": "uint256"
        }
      ],
      "name": "Transfer",
      "type": "event"
    },
    {
      "anonymous": false,
      "inputs": [
        {
          "indexed": true,
          "internalType": "address",
          "name": "_address",
          "type": "address"
        }
      ],
      "name": "UnverifiedUser",
      "type": "event"
    },
    {
      "anonymous": false,
      "inputs": [
        {
          "indexed": false,
          "internalType": "string",
          "name": "_postcode",
          "type": "string"
        },
        {
          "indexed": false,
          "internalType": "uint8",
          "name": "_age",
          "type": "uint8"
        }
      ],
      "name": "Vaccination",
      "type": "event"
    },
    {
      "anonymous": false,
      "inputs": [
        {
          "indexed": true,
          "internalType": "address",
          "name": "_address",
          "type": "address"
        }
      ],
      "name": "VerifiedUser",
      "type": "event"
    },
    {
      "inputs": [],
      "name": "administrator",
      "outputs": [
        {
          "internalType": "address",
          "name": "",
          "type": "address"
        }
      ],
      "stateMutability": "view",
      "type": "function"
    },
    {
      "inputs": [
        {
          "internalType": "bytes32",
          "name": "",
          "type": "bytes32"
        }
      ],
      "name": "passports",
      "outputs": [
        {
          "internalType": "string",
          "name": "postcode",
          "type": "string"
        },
        {
          "internalType": "uint8",
          "name": "age",
          "type": "uint8"
        },
        {
          "internalType": "bool",
          "name": "vaccinationStatus",
          "type": "bool"
        }
      ],
      "stateMutability": "view",
      "type": "function"
    },
    {
      "inputs": [
        {
          "internalType": "address",
          "name": "_address",
          "type": "address"
        }
      ],
      "name": "addVerifiedUser",
      "outputs": [],
      "stateMutability": "nonpayable",
      "type": "function"
    },
    {
      "inputs": [
        {
          "internalType": "address",
          "name": "_address",
          "type": "address"
        }
      ],
      "name": "removeVerifiedUser",
      "outputs": [],
      "stateMutability": "nonpayable",
      "type": "function"
    },
    {
      "inputs": [
        {
          "internalType": "address payable",
          "name": "_address",
          "type": "address"
        }
      ],
      "name": "topUp",
      "outputs": [],
      "stateMutability": "payable",
      "type": "function"
    },
    {
      "inputs": [
        {
          "internalType": "address",
          "name": "_address",
          "type": "address"
        }
      ],
      "name": "isVerified",
      "outputs": [
        {
          "internalType": "bool",
          "name": "",
          "type": "bool"
        }
      ],
      "stateMutability": "view",
      "type": "function"
    },
    {
      "inputs": [
        {
          "internalType": "bytes32",
          "name": "_hash",
          "type": "bytes32"
        },
        {
          "internalType": "string",
          "name": "_postcode",
          "type": "string"
        },
        {
          "internalType": "uint8",
          "name": "_age",
          "type": "uint8"
        }
      ],
      "name": "addCitizen",
      "outputs": [],
      "stateMutability": "nonpayable",
      "type": "function"
    },
    {
      "inputs": [
        {
          "internalType": "bytes32",
          "name": "_hash",
          "type": "bytes32"
        }
      ],
      "name": "removeCitizen",
      "outputs": [],
      "stateMutability": "nonpayable",
      "type": "function"
    },
    {
      "inputs": [
        {
          "internalType": "bytes32",
          "name": "_hash",
          "type": "bytes32"
        }
      ],
      "name": "isVaccinated",
      "outputs": [
        {
          "internalType": "bool",
          "name": "",
          "type": "bool"
        }
      ],
      "stateMutability": "view",
      "type": "function"
    },
    {
      "inputs": [],
      "name": "addTestingCitizens",
      "outputs": [],
      "stateMutability": "nonpayable",
      "type": "function"
    }
  ],
  "bytecode": "0x608060405234801561001057600080fd5b50336000806101000a81548173ffffffffffffffffffffffffffffffffffffffff021916908373ffffffffffffffffffffffffffffffffffffffff16021790555060018060003373ffffffffffffffffffffffffffffffffffffffff1673ffffffffffffffffffffffffffffffffffffffff16815260200190815260200160002060006101000a81548160ff02191690831515021790555061104f806100b76000396000f3fe6080604052600436106100915760003560e01c806377ff6da91161005957806377ff6da91461027257806388e3c5d6146102ad578063b9209e33146102fe578063f53d0a8e14610365578063fb51ed4e146103a657610091565b806311433892146100965780631bbed321146100e757806325cb98d51461012b5780635869bc601461017c57806371b103891461025b575b600080fd5b3480156100a257600080fd5b506100cf600480360360208110156100b957600080fd5b810190808035906020019092919050505061046d565b60405180821515815260200191505060405180910390f35b610129600480360360208110156100fd57600080fd5b81019080803573ffffffffffffffffffffffffffffffffffffffff16906020019092919050505061049a565b005b34801561013757600080fd5b5061017a6004803603602081101561014e57600080fd5b81019080803573ffffffffffffffffffffffffffffffffffffffff169060200190929190505050610599565b005b34801561018857600080fd5b506102596004803603606081101561019f57600080fd5b8101908080359060200190929190803590602001906401000000008111156101c657600080fd5b8201836020820111156101d857600080fd5b803590602001918460018302840111640100000000831117156101fa57600080fd5b91908080601f016020809104026020016040519081016040528093929190818152602001838380828437600081840152601f19601f820116905080830192505050505050509192919290803560ff16906020019092919050505061068f565b005b34801561026757600080fd5b50610270610786565b005b34801561027e57600080fd5b506102ab6004803603602081101561029557600080fd5b8101908080359060200190929190505050610bc8565b005b3480156102b957600080fd5b506102fc600480360360208110156102d057600080fd5b81019080803573ffffffffffffffffffffffffffffffffffffffff169060200190929190505050610cc1565b005b34801561030a57600080fd5b5061034d6004803603602081101561032157600080fd5b81019080803573ffffffffffffffffffffffffffffffffffffffff169060200190929190505050610dbb565b60405180821515815260200191505060405180910390f35b34801561037157600080fd5b5061037a610e6e565b604051808273ffffffffffffffffffffffffffffffffffffffff16815260200191505060405180910390f35b3480156103b257600080fd5b506103df600480360360208110156103c957600080fd5b8101908080359060200190929190505050610e92565b60405180806020018460ff1681526020018315158152602001828103825285818151815260200191508051906020019080838360005b83811015610430578082015181840152602081019050610415565b50505050905090810190601f16801561045d5780820380516001836020036101000a031916815260200191505b5094505050505060405180910390f35b60006002600083815260200190815260200160002060010160019054906101000a900460ff169050919050565b60008054906101000a900473ffffffffffffffffffffffffffffffffffffffff1673ffffffffffffffffffffffffffffffffffffffff163373ffffffffffffffffffffffffffffffffffffffff16146104f257600080fd5b6104fb81610dbb565b15610596578073ffffffffffffffffffffffffffffffffffffffff166108fc349081150290604051600060405180830381858888f19350505050158015610546573d6000803e3d6000fd5b508073ffffffffffffffffffffffffffffffffffffffff167f69ca02dd4edd7bf0a4abb9ed3b7af3f14778db5d61921c7dc7cd545266326de2346040518082815260200191505060405180910390a25b50565b60008054906101000a900473ffffffffffffffffffffffffffffffffffffffff1673ffffffffffffffffffffffffffffffffffffffff163373ffffffffffffffffffffffffffffffffffffffff16146105f157600080fd5b6000600160008373ffffffffffffffffffffffffffffffffffffffff1673ffffffffffffffffffffffffffffffffffffffff16815260200190815260200160002060006101000a81548160ff0219169083151502179055508073ffffffffffffffffffffffffffffffffffffffff167f4f4bd6fc6a67e248b443f4a8f9b9e3d979fbe3f7a38206c03b1a83d8284539e060405160405180910390a250565b60011515600160003373ffffffffffffffffffffffffffffffffffffffff1673ffffffffffffffffffffffffffffffffffffffff16815260200190815260200160002060009054906101000a900460ff161515146106ec57600080fd5b60405180606001604052808381526020018260ff1681526020016001151581525060026000858152602001908152602001600020600082015181600001908051906020019061073c929190610f6e565b5060208201518160010160006101000a81548160ff021916908360ff16021790555060408201518160010160016101000a81548160ff021916908315150217905550905050505050565b60008054906101000a900473ffffffffffffffffffffffffffffffffffffffff1673ffffffffffffffffffffffffffffffffffffffff163373ffffffffffffffffffffffffffffffffffffffff16146107de57600080fd5b6108427f3ac225168df54212a25c1c01fd35bebfea408fdac2e31ddd6f80a4bbf9a5f1cb60001b6040518060400160405280600781526020017f4357392038553100000000000000000000000000000000000000000000000000815250600161068f565b6108a67f67fad3bfa1e0321bd021ca805ce14876e50acac8ca8532eda8cbf924da56516060001b6040518060400160405280600781526020017f4357392038553200000000000000000000000000000000000000000000000000815250600261068f565b61090a7f4e03657aea45a94fc7d47ba826c8d667c0d1e6e33a64a036ec44f58fa12d6c4560001b6040518060400160405280600781526020017f4357392038553300000000000000000000000000000000000000000000000000815250600361068f565b61096e7f48bed44d1bcd124a28c27f343a817e5f5243190d3c52bf347daf876de1dbbf7760001b6040518060400160405280600781526020017f4357392038553400000000000000000000000000000000000000000000000000815250600461068f565b6109d27f6377c7e66081cb65e473c1b95db5195a27d04a7108b468890224bedbe1a8a6eb60001b6040518060400160405280600781526020017f4357392038553500000000000000000000000000000000000000000000000000815250600561068f565b610a367facd0c377fe36d5b209125185bc3ac41155ed1bf7103ef9f0c2aff4320460b6df60001b6040518060400160405280600781526020017f4357392038553600000000000000000000000000000000000000000000000000815250600661068f565b610a9a7fa82aec019867b7307551dc397acde18b541e742fa1a4e53df4ce3b02d462f52460001b6040518060400160405280600781526020017f4357392038553700000000000000000000000000000000000000000000000000815250600761068f565b610afe7f48624fa43c68d5c552855a4e2919e74645f683f5384f72b5b051b71ea41d4f2d60001b6040518060400160405280600781526020017f4357392038553800000000000000000000000000000000000000000000000000815250600861068f565b610b627f34fb2702da7001bf4dbf26a1e4cf31044bd95b85e1017596ee2d23aedc90498b60001b6040518060400160405280600781526020017f4357392038553900000000000000000000000000000000000000000000000000815250600961068f565b610bc67ff8da54b5a7dd75028acb077ee61e8dde47ed37c746703ce764edf4a789eb210360001b6040518060400160405280600781526020017f4357392038553000000000000000000000000000000000000000000000000000815250600a61068f565b565b60011515600160003373ffffffffffffffffffffffffffffffffffffffff1673ffffffffffffffffffffffffffffffffffffffff16815260200190815260200160002060009054906101000a900460ff16151514610c2557600080fd5b60405180602001604052806000815250600260008381526020019081526020016000206000019080519060200190610c5e929190610f6e565b5060006002600083815260200190815260200160002060010160006101000a81548160ff021916908360ff16021790555060006002600083815260200190815260200160002060010160016101000a81548160ff02191690831515021790555050565b60011515600160003373ffffffffffffffffffffffffffffffffffffffff1673ffffffffffffffffffffffffffffffffffffffff16815260200190815260200160002060009054906101000a900460ff16151514610d1e57600080fd5b60018060008373ffffffffffffffffffffffffffffffffffffffff1673ffffffffffffffffffffffffffffffffffffffff16815260200190815260200160002060006101000a81548160ff0219169083151502179055508073ffffffffffffffffffffffffffffffffffffffff167f7326a4b0242e24d5a2706cbd8418aaf98674c16c263d222c7e4d8e41539e9ec560405160405180910390a250565b600060011515600160003373ffffffffffffffffffffffffffffffffffffffff1673ffffffffffffffffffffffffffffffffffffffff16815260200190815260200160002060009054906101000a900460ff16151514610e1a57600080fd5b600160008373ffffffffffffffffffffffffffffffffffffffff1673ffffffffffffffffffffffffffffffffffffffff16815260200190815260200160002060009054906101000a900460ff169050919050565b60008054906101000a900473ffffffffffffffffffffffffffffffffffffffff1681565b6002602052806000526040600020600091509050806000018054600181600116156101000203166002900480601f016020809104026020016040519081016040528092919081815260200182805460018160011615610100020316600290048015610f3e5780601f10610f1357610100808354040283529160200191610f3e565b820191906000526020600020905b815481529060010190602001808311610f2157829003601f168201915b5050505050908060010160009054906101000a900460ff16908060010160019054906101000a900460ff16905083565b828054600181600116156101000203166002900490600052602060002090601f016020900481019282610fa45760008555610feb565b82601f10610fbd57805160ff1916838001178555610feb565b82800160010185558215610feb579182015b82811115610fea578251825591602001919060010190610fcf565b5b509050610ff89190610ffc565b5090565b5b80821115611015576000816000905550600101610ffd565b509056fea2646970667358221220298337e6eee3219640b808cc80cc7c5f6789c21242ff296f796a82381e12ca0d64736f6c63430007040033",
  "immutableReferences": {},
  "source": "// SPDX-License-Identifier: UNLICENSED\npragma solidity ^0.7.4;\n\ncontract Passport {\n    address public administrator; // address of who deployed the contract (admin access for certain operations)\n    mapping(address => bool) verifiedUsers; // mapping of verified users\n    mapping(bytes32 => Citizen) public passports; // map hashes to citizens (wont be public in final implementation)\n\n    struct Citizen {\n        string postcode; // store county code of citizen eg (GB-NBL = Northumberland)\n        uint8 age;\n        bool vaccinationStatus; // a bool to represent vaccination status (true = vaccinated)\n    }\n\n    constructor() {\n        administrator = msg.sender;\n        verifiedUsers[msg.sender] = true;\n    }\n\n    modifier admin() {\n        require(msg.sender == administrator);\n        _;\n    }\n\n    modifier verified() {\n        require(verifiedUsers[msg.sender] == true);\n        _;\n    }\n\n    function addVerifiedUser(address _address) public verified {\n        verifiedUsers[_address] = true;\n        emit VerifiedUser(_address);\n    }\n\n    function removeVerifiedUser(address _address) public admin {\n        verifiedUsers[_address] = false;\n        emit UnverifiedUser(_address);\n    }\n\n    function topUp(address payable _address) public payable admin {\n        if (isVerified(_address)) {\n            _address.transfer(msg.value);\n            emit Transfer(_address, msg.value);\n        }\n    }\n\n    function isVerified(address _address) public view verified returns (bool) {\n        return verifiedUsers[_address];\n    }\n\n    function addCitizen(\n        bytes32 _hash,\n        string memory _postcode,\n        uint8 _age\n    ) public verified {\n        passports[_hash] = Citizen(_postcode, _age, true);\n    }\n\n    function removeCitizen(bytes32 _hash) public verified {\n        // remove data regarding _hash citizen\n        passports[_hash].postcode = \"\";\n        passports[_hash].age = 0;\n        passports[_hash].vaccinationStatus = false;\n    }\n\n    function isVaccinated(bytes32 _hash) public view returns (bool) {\n        return passports[_hash].vaccinationStatus;\n    }\n\n    event Transfer(address indexed _address, uint256 _amount);\n    event VerifiedUser(address indexed _address);\n    event UnverifiedUser(address indexed _address);\n    event Vaccination(string _postcode, uint8 _age);\n\n    function addTestingCitizens() public admin {\n        // temporary testing function to populate citizens\n\n        addCitizen(\n            0x3ac225168df54212a25c1c01fd35bebfea408fdac2e31ddd6f80a4bbf9a5f1cb,\n            \"CW9 8U1\",\n            1\n        );\n\n        addCitizen(\n            0x67fad3bfa1e0321bd021ca805ce14876e50acac8ca8532eda8cbf924da565160,\n            \"CW9 8U2\",\n            2\n        );\n        addCitizen(\n            0x4e03657aea45a94fc7d47ba826c8d667c0d1e6e33a64a036ec44f58fa12d6c45,\n            \"CW9 8U3\",\n            3\n        );\n        addCitizen(\n            0x48bed44d1bcd124a28c27f343a817e5f5243190d3c52bf347daf876de1dbbf77,\n            \"CW9 8U4\",\n            4\n        );\n        addCitizen(\n            0x6377c7e66081cb65e473c1b95db5195a27d04a7108b468890224bedbe1a8a6eb,\n            \"CW9 8U5\",\n            5\n        );\n        addCitizen(\n            0xacd0c377fe36d5b209125185bc3ac41155ed1bf7103ef9f0c2aff4320460b6df,\n            \"CW9 8U6\",\n            6\n        );\n        addCitizen(\n            0xa82aec019867b7307551dc397acde18b541e742fa1a4e53df4ce3b02d462f524,\n            \"CW9 8U7\",\n            7\n        );\n        addCitizen(\n            0x48624fa43c68d5c552855a4e2919e74645f683f5384f72b5b051b71ea41d4f2d,\n            \"CW9 8U8\",\n            8\n        );\n        addCitizen(\n            0x34fb2702da7001bf4dbf26a1e4cf31044bd95b85e1017596ee2d23aedc90498b,\n            \"CW9 8U9\",\n            9\n        );\n        addCitizen(\n            0xf8da54b5a7dd75028acb077ee61e8dde47ed37c746703ce764edf4a789eb2103,\n            \"CW9 8U0\",\n            10\n        );\n    }\n}\n",
  "sourcePath": "/Users/josh/Projects/ethereum/covid-pass/contracts/Passport.sol",
  "compiler": {
    "name": "solc",
    "version": "0.7.4+commit.3f05b770.Emscripten.clang"
  },
  "schemaVersion": "3.3.4",
  "updatedAt": "2021-03-17T16:08:00.202Z",
  "devdoc": {
    "kind": "dev",
    "methods": {},
    "version": 1
  },
  "userdoc": {
    "kind": "user",
    "methods": {},
    "version": 1
  }
}