{
  "contractName": "Passport",
  "abi": [
    {
      "inputs": [],
      "stateMutability": "nonpayable",
      "type": "constructor"
    },
    {
      "anonymous": false,
      "inputs": [
        {
          "indexed": false,
          "internalType": "string",
          "name": "_countryCode",
          "type": "string"
        },
        {
          "indexed": false,
          "internalType": "string",
          "name": "_subdivisionCode",
          "type": "string"
        },
        {
          "indexed": false,
          "internalType": "uint16",
          "name": "_age",
          "type": "uint16"
        }
      ],
      "name": "PositiveCase",
      "type": "event"
    },
    {
      "anonymous": false,
      "inputs": [
        {
          "indexed": true,
          "internalType": "address",
          "name": "_address",
          "type": "address"
        },
        {
          "indexed": false,
          "internalType": "uint256",
          "name": "_amount",
          "type": "uint256"
        }
      ],
      "name": "Transfer",
      "type": "event"
    },
    {
      "anonymous": false,
      "inputs": [
        {
          "indexed": true,
          "internalType": "address",
          "name": "_address",
          "type": "address"
        }
      ],
      "name": "UnverifiedUser",
      "type": "event"
    },
    {
      "anonymous": false,
      "inputs": [
        {
          "indexed": true,
          "internalType": "address",
          "name": "_address",
          "type": "address"
        }
      ],
      "name": "VerifiedUser",
      "type": "event"
    },
    {
      "inputs": [],
      "name": "owner",
      "outputs": [
        {
          "internalType": "address",
          "name": "",
          "type": "address"
        }
      ],
      "stateMutability": "view",
      "type": "function",
      "constant": true
    },
    {
      "inputs": [
        {
          "internalType": "uint256",
          "name": "",
          "type": "uint256"
        }
      ],
      "name": "passport",
      "outputs": [
        {
          "internalType": "uint256",
          "name": "id",
          "type": "uint256"
        },
        {
          "internalType": "string",
          "name": "countryCode",
          "type": "string"
        },
        {
          "internalType": "string",
          "name": "subdivisionCode",
          "type": "string"
        },
        {
          "internalType": "uint16",
          "name": "age",
          "type": "uint16"
        },
        {
          "internalType": "bool",
          "name": "immunityStatus",
          "type": "bool"
        }
      ],
      "stateMutability": "view",
      "type": "function",
      "constant": true
    },
    {
      "inputs": [
        {
          "internalType": "address",
          "name": "_address",
          "type": "address"
        }
      ],
      "name": "addVerifiedUser",
      "outputs": [],
      "stateMutability": "nonpayable",
      "type": "function"
    },
    {
      "inputs": [
        {
          "internalType": "address",
          "name": "_address",
          "type": "address"
        }
      ],
      "name": "removeVerifiedUser",
      "outputs": [],
      "stateMutability": "nonpayable",
      "type": "function"
    },
    {
      "inputs": [
        {
          "internalType": "address payable",
          "name": "_address",
          "type": "address"
        }
      ],
      "name": "topUp",
      "outputs": [],
      "stateMutability": "payable",
      "type": "function",
      "payable": true
    },
    {
      "inputs": [
        {
          "internalType": "address",
          "name": "_address",
          "type": "address"
        }
      ],
      "name": "isVerified",
      "outputs": [
        {
          "internalType": "bool",
          "name": "",
          "type": "bool"
        }
      ],
      "stateMutability": "view",
      "type": "function",
      "constant": true
    },
    {
      "inputs": [
        {
          "internalType": "string",
          "name": "_countryCode",
          "type": "string"
        },
        {
          "internalType": "string",
          "name": "_subdivisionCode",
          "type": "string"
        },
        {
          "internalType": "uint16",
          "name": "_age",
          "type": "uint16"
        },
        {
          "internalType": "bool",
          "name": "_immunityStatus",
          "type": "bool"
        }
      ],
      "name": "addCitizen",
      "outputs": [],
      "stateMutability": "nonpayable",
      "type": "function"
    }
  ],
  "bytecode": "0x6080604052600060035534801561001557600080fd5b50336000806101000a81548173ffffffffffffffffffffffffffffffffffffffff021916908373ffffffffffffffffffffffffffffffffffffffff16021790555060018060003373ffffffffffffffffffffffffffffffffffffffff1673ffffffffffffffffffffffffffffffffffffffff16815260200190815260200160002060006101000a81548160ff021916908315150217905550610d43806100bc6000396000f3fe6080604052600436106100705760003560e01c806388e3c5d61161004e57806388e3c5d6146102835780638da5cb5b146102d4578063b733b95114610315578063b9209e331461045057610070565b80631bbed3211461007557806325cb98d5146100b9578063842a70721461010a575b600080fd5b6100b76004803603602081101561008b57600080fd5b81019080803573ffffffffffffffffffffffffffffffffffffffff1690602001909291905050506104b7565b005b3480156100c557600080fd5b50610108600480360360208110156100dc57600080fd5b81019080803573ffffffffffffffffffffffffffffffffffffffff1690602001909291905050506105b6565b005b34801561011657600080fd5b506102816004803603608081101561012d57600080fd5b810190808035906020019064010000000081111561014a57600080fd5b82018360208201111561015c57600080fd5b8035906020019184600183028401116401000000008311171561017e57600080fd5b91908080601f016020809104026020016040519081016040528093929190818152602001838380828437600081840152601f19601f820116905080830192505050505050509192919290803590602001906401000000008111156101e157600080fd5b8201836020820111156101f357600080fd5b8035906020019184600183028401116401000000008311171561021557600080fd5b91908080601f016020809104026020016040519081016040528093929190818152602001838380828437600081840152601f19601f820116905080830192505050505050509192919290803561ffff1690602001909291908035151590602001909291905050506106b1565b005b34801561028f57600080fd5b506102d2600480360360208110156102a657600080fd5b81019080803573ffffffffffffffffffffffffffffffffffffffff169060200190929190505050610910565b005b3480156102e057600080fd5b506102e9610a0a565b604051808273ffffffffffffffffffffffffffffffffffffffff16815260200191505060405180910390f35b34801561032157600080fd5b5061034e6004803603602081101561033857600080fd5b8101908080359060200190929190505050610a2e565b6040518086815260200180602001806020018561ffff1681526020018415158152602001838103835287818151815260200191508051906020019080838360005b838110156103aa57808201518184015260208101905061038f565b50505050905090810190601f1680156103d75780820380516001836020036101000a031916815260200191505b50838103825286818151815260200191508051906020019080838360005b838110156104105780820151818401526020810190506103f5565b50505050905090810190601f16801561043d5780820380516001836020036101000a031916815260200191505b5097505050505050505060405180910390f35b34801561045c57600080fd5b5061049f6004803603602081101561047357600080fd5b81019080803573ffffffffffffffffffffffffffffffffffffffff169060200190929190505050610baf565b60405180821515815260200191505060405180910390f35b60008054906101000a900473ffffffffffffffffffffffffffffffffffffffff1673ffffffffffffffffffffffffffffffffffffffff163373ffffffffffffffffffffffffffffffffffffffff161461050f57600080fd5b61051881610baf565b156105b3578073ffffffffffffffffffffffffffffffffffffffff166108fc349081150290604051600060405180830381858888f19350505050158015610563573d6000803e3d6000fd5b508073ffffffffffffffffffffffffffffffffffffffff167f69ca02dd4edd7bf0a4abb9ed3b7af3f14778db5d61921c7dc7cd545266326de2346040518082815260200191505060405180910390a25b50565b60011515600160003373ffffffffffffffffffffffffffffffffffffffff1673ffffffffffffffffffffffffffffffffffffffff16815260200190815260200160002060009054906101000a900460ff1615151461061357600080fd5b6000600160008373ffffffffffffffffffffffffffffffffffffffff1673ffffffffffffffffffffffffffffffffffffffff16815260200190815260200160002060006101000a81548160ff0219169083151502179055508073ffffffffffffffffffffffffffffffffffffffff167f4f4bd6fc6a67e248b443f4a8f9b9e3d979fbe3f7a38206c03b1a83d8284539e060405160405180910390a250565b60011515600160003373ffffffffffffffffffffffffffffffffffffffff1673ffffffffffffffffffffffffffffffffffffffff16815260200190815260200160002060009054906101000a900460ff1615151461070e57600080fd5b6003600081548092919060010191905055506040518060a0016040528060035481526020018581526020018481526020018361ffff16815260200182151581525060026000600354815260200190815260200160002060008201518160000155602082015181600101908051906020019061078a929190610c62565b5060408201518160020190805190602001906107a7929190610c62565b5060608201518160030160006101000a81548161ffff021916908361ffff16021790555060808201518160030160026101000a81548160ff021916908315150217905550905050801561090a577f59cc731476f7a081292842bb5ae92cc6e346f6cda5fa395b6f9cdc6ce77eaa018484846040518080602001806020018461ffff168152602001838103835286818151815260200191508051906020019080838360005b8381101561086657808201518184015260208101905061084b565b50505050905090810190601f1680156108935780820380516001836020036101000a031916815260200191505b50838103825285818151815260200191508051906020019080838360005b838110156108cc5780820151818401526020810190506108b1565b50505050905090810190601f1680156108f95780820380516001836020036101000a031916815260200191505b509550505050505060405180910390a15b50505050565b60011515600160003373ffffffffffffffffffffffffffffffffffffffff1673ffffffffffffffffffffffffffffffffffffffff16815260200190815260200160002060009054906101000a900460ff1615151461096d57600080fd5b60018060008373ffffffffffffffffffffffffffffffffffffffff1673ffffffffffffffffffffffffffffffffffffffff16815260200190815260200160002060006101000a81548160ff0219169083151502179055508073ffffffffffffffffffffffffffffffffffffffff167f7326a4b0242e24d5a2706cbd8418aaf98674c16c263d222c7e4d8e41539e9ec560405160405180910390a250565b60008054906101000a900473ffffffffffffffffffffffffffffffffffffffff1681565b6002602052806000526040600020600091509050806000015490806001018054600181600116156101000203166002900480601f016020809104026020016040519081016040528092919081815260200182805460018160011615610100020316600290048015610ae05780601f10610ab557610100808354040283529160200191610ae0565b820191906000526020600020905b815481529060010190602001808311610ac357829003601f168201915b505050505090806002018054600181600116156101000203166002900480601f016020809104026020016040519081016040528092919081815260200182805460018160011615610100020316600290048015610b7e5780601f10610b5357610100808354040283529160200191610b7e565b820191906000526020600020905b815481529060010190602001808311610b6157829003601f168201915b5050505050908060030160009054906101000a900461ffff16908060030160029054906101000a900460ff16905085565b600060011515600160003373ffffffffffffffffffffffffffffffffffffffff1673ffffffffffffffffffffffffffffffffffffffff16815260200190815260200160002060009054906101000a900460ff16151514610c0e57600080fd5b600160008373ffffffffffffffffffffffffffffffffffffffff1673ffffffffffffffffffffffffffffffffffffffff16815260200190815260200160002060009054906101000a900460ff169050919050565b828054600181600116156101000203166002900490600052602060002090601f016020900481019282610c985760008555610cdf565b82601f10610cb157805160ff1916838001178555610cdf565b82800160010185558215610cdf579182015b82811115610cde578251825591602001919060010190610cc3565b5b509050610cec9190610cf0565b5090565b5b80821115610d09576000816000905550600101610cf1565b509056fea26469706673582212201c4b2403fa05fdce7ad8417da9be6d0f20a5ece2b31c11ab57c8662909cb858464736f6c63430007040033",
  "immutableReferences": {},
  "source": "pragma solidity ^0.7.4;\n\ncontract Passport {\n    address public owner;\n    mapping(address => bool) verifiedUsers;\n\n    mapping(uint256 => Citizen) public passport;\n    uint256 passportCount = 0;\n\n    struct Citizen {\n        uint256 id; // temporary uint id for testing\n        string countryCode; // store country code of citizen (eg GB-ENG = England)\n        string subdivisionCode; // store county code of citizen eg (GB-NBL = Northumberland)\n        uint16 age;\n        bool immunityStatus; // bool representing immunity status of citizen (true = immune)\n    }\n\n    constructor() public {\n        owner = msg.sender;\n        verifiedUsers[msg.sender] = true;\n    }\n\n    modifier admin() {\n        require(msg.sender == owner);\n        _;\n    }\n\n    modifier verified() {\n        require(verifiedUsers[msg.sender] == true);\n        _;\n    }\n\n    function addVerifiedUser(address _address) public verified {\n        verifiedUsers[_address] = true;\n        emit VerifiedUser(_address);\n    }\n\n    function removeVerifiedUser(address _address) public verified {\n        verifiedUsers[_address] = false;\n        emit UnverifiedUser(_address);\n    }\n\n    function topUp(address payable _address) public payable admin {\n        if (isVerified(_address)) {\n            _address.transfer(msg.value);\n            emit Transfer(_address, msg.value);\n        }\n    }\n\n    function isVerified(address _address) public view verified returns (bool) {\n        return verifiedUsers[_address];\n    }\n\n    function addCitizen(\n        string memory _countryCode,\n        string memory _subdivisionCode,\n        uint16 _age,\n        bool _immunityStatus\n    ) public verified {\n        passportCount++;\n        passport[passportCount] = Citizen(\n            passportCount,\n            _countryCode,\n            _subdivisionCode,\n            _age,\n            _immunityStatus\n        );\n        if (_immunityStatus) {\n            emit PositiveCase(_countryCode, _subdivisionCode, _age);\n        }\n    }\n\n    event Transfer(address indexed _address, uint256 _amount);\n    event VerifiedUser(address indexed _address);\n    event UnverifiedUser(address indexed _address);\n    event PositiveCase(\n        string _countryCode,\n        string _subdivisionCode,\n        uint16 _age\n    );\n}\n",
  "sourcePath": "/Users/josh/Projects/ethereum/covid-pass/contracts/Passport.sol",
  "compiler": {
    "name": "solc",
    "version": "0.7.4+commit.3f05b770.Emscripten.clang"
  },
  "schemaVersion": "3.3.2",
  "updatedAt": "2021-02-04T12:21:00.375Z",
  "networkType": "ethereum",
  "devdoc": {
    "kind": "dev",
    "methods": {},
    "version": 1
  },
  "userdoc": {
    "kind": "user",
    "methods": {},
    "version": 1
  }
}