{
  "contractName": "Passport",
  "abi": [
    {
      "inputs": [],
      "stateMutability": "nonpayable",
      "type": "constructor"
    },
    {
      "anonymous": false,
      "inputs": [
        {
          "indexed": false,
          "internalType": "uint256",
          "name": "_updateCount",
          "type": "uint256"
        }
      ],
      "name": "AutoImmunityUpdate",
      "type": "event"
    },
    {
      "anonymous": false,
      "inputs": [
        {
          "indexed": false,
          "internalType": "string",
          "name": "_subdivisionCode",
          "type": "string"
        },
        {
          "indexed": false,
          "internalType": "uint8",
          "name": "_age",
          "type": "uint8"
        }
      ],
      "name": "ImmuneCase",
      "type": "event"
    },
    {
      "anonymous": false,
      "inputs": [
        {
          "indexed": true,
          "internalType": "address",
          "name": "_address",
          "type": "address"
        },
        {
          "indexed": false,
          "internalType": "uint256",
          "name": "_amount",
          "type": "uint256"
        }
      ],
      "name": "Transfer",
      "type": "event"
    },
    {
      "anonymous": false,
      "inputs": [
        {
          "indexed": true,
          "internalType": "address",
          "name": "_address",
          "type": "address"
        }
      ],
      "name": "UnverifiedUser",
      "type": "event"
    },
    {
      "anonymous": false,
      "inputs": [
        {
          "indexed": true,
          "internalType": "address",
          "name": "_address",
          "type": "address"
        }
      ],
      "name": "VerifiedUser",
      "type": "event"
    },
    {
      "inputs": [],
      "name": "idCount",
      "outputs": [
        {
          "internalType": "uint256",
          "name": "",
          "type": "uint256"
        }
      ],
      "stateMutability": "view",
      "type": "function",
      "constant": true
    },
    {
      "inputs": [
        {
          "internalType": "uint256",
          "name": "",
          "type": "uint256"
        }
      ],
      "name": "ids",
      "outputs": [
        {
          "internalType": "bytes32",
          "name": "",
          "type": "bytes32"
        }
      ],
      "stateMutability": "view",
      "type": "function",
      "constant": true
    },
    {
      "inputs": [],
      "name": "lastAutoUpdate",
      "outputs": [
        {
          "internalType": "uint256",
          "name": "",
          "type": "uint256"
        }
      ],
      "stateMutability": "view",
      "type": "function",
      "constant": true
    },
    {
      "inputs": [
        {
          "internalType": "bytes32",
          "name": "",
          "type": "bytes32"
        }
      ],
      "name": "passports",
      "outputs": [
        {
          "internalType": "string",
          "name": "subdivisionCode",
          "type": "string"
        },
        {
          "internalType": "uint8",
          "name": "age",
          "type": "uint8"
        },
        {
          "internalType": "bool",
          "name": "immunity",
          "type": "bool"
        },
        {
          "internalType": "uint256",
          "name": "immuneTime",
          "type": "uint256"
        }
      ],
      "stateMutability": "view",
      "type": "function",
      "constant": true
    },
    {
      "inputs": [
        {
          "internalType": "address",
          "name": "_address",
          "type": "address"
        }
      ],
      "name": "addVerifiedUser",
      "outputs": [],
      "stateMutability": "nonpayable",
      "type": "function"
    },
    {
      "inputs": [
        {
          "internalType": "address",
          "name": "_address",
          "type": "address"
        }
      ],
      "name": "removeVerifiedUser",
      "outputs": [],
      "stateMutability": "nonpayable",
      "type": "function"
    },
    {
      "inputs": [
        {
          "internalType": "address payable",
          "name": "_address",
          "type": "address"
        }
      ],
      "name": "topUp",
      "outputs": [],
      "stateMutability": "payable",
      "type": "function",
      "payable": true
    },
    {
      "inputs": [
        {
          "internalType": "address",
          "name": "_address",
          "type": "address"
        }
      ],
      "name": "isVerified",
      "outputs": [
        {
          "internalType": "bool",
          "name": "",
          "type": "bool"
        }
      ],
      "stateMutability": "view",
      "type": "function",
      "constant": true
    },
    {
      "inputs": [
        {
          "internalType": "bytes32",
          "name": "_hash",
          "type": "bytes32"
        },
        {
          "internalType": "string",
          "name": "_subdivisionCode",
          "type": "string"
        },
        {
          "internalType": "uint8",
          "name": "_age",
          "type": "uint8"
        },
        {
          "internalType": "bool",
          "name": "_immunityStatus",
          "type": "bool"
        }
      ],
      "name": "addCitizen",
      "outputs": [],
      "stateMutability": "nonpayable",
      "type": "function"
    },
    {
      "inputs": [
        {
          "internalType": "bytes32",
          "name": "_hash",
          "type": "bytes32"
        }
      ],
      "name": "isImmune",
      "outputs": [
        {
          "internalType": "bool",
          "name": "",
          "type": "bool"
        }
      ],
      "stateMutability": "view",
      "type": "function",
      "constant": true
    },
    {
      "inputs": [
        {
          "internalType": "bytes32",
          "name": "_hash",
          "type": "bytes32"
        },
        {
          "internalType": "bool",
          "name": "_immunityStatus",
          "type": "bool"
        }
      ],
      "name": "updateImmunity",
      "outputs": [],
      "stateMutability": "nonpayable",
      "type": "function"
    },
    {
      "inputs": [],
      "name": "autoUpdateImmunity",
      "outputs": [],
      "stateMutability": "nonpayable",
      "type": "function"
    },
    {
      "inputs": [],
      "name": "addTestingCitizens",
      "outputs": [],
      "stateMutability": "nonpayable",
      "type": "function"
    }
  ],
  "bytecode": "0x60806040526000600455600060055534801561001a57600080fd5b50336000806101000a81548173ffffffffffffffffffffffffffffffffffffffff021916908373ffffffffffffffffffffffffffffffffffffffff16021790555060018060003373ffffffffffffffffffffffffffffffffffffffff1673ffffffffffffffffffffffffffffffffffffffff16815260200190815260200160002060006101000a81548160ff02191690831515021790555042600581905550611d56806100c86000396000f3fe6080604052600436106100c25760003560e01c806388e3c5d61161007f578063e0bf156b11610059578063e0bf156b1461039f578063e6e46238146103f0578063fac333ac1461041b578063fb51ed4e1461046a576100c2565b806388e3c5d6146102bc5780638c7ade461461030d578063b9209e3314610338576100c2565b80631bbed321146100c75780631edb8f721461010b57806325cb98d51461015257806347d16294146101a35780635613d6c0146101ba57806371b10389146102a5575b600080fd5b610109600480360360208110156100dd57600080fd5b81019080803573ffffffffffffffffffffffffffffffffffffffff169060200190929190505050610538565b005b34801561011757600080fd5b506101506004803603604081101561012e57600080fd5b8101908080359060200190929190803515159060200190929190505050610637565b005b34801561015e57600080fd5b506101a16004803603602081101561017557600080fd5b81019080803573ffffffffffffffffffffffffffffffffffffffff169060200190929190505050610737565b005b3480156101af57600080fd5b506101b861082d565b005b3480156101c657600080fd5b506102a3600480360360808110156101dd57600080fd5b81019080803590602001909291908035906020019064010000000081111561020457600080fd5b82018360208201111561021657600080fd5b8035906020019184600183028401116401000000008311171561023857600080fd5b91908080601f016020809104026020016040519081016040528093929190818152602001838380828437600081840152601f19601f820116905080830192505050505050509192919290803560ff1690602001909291908035151590602001909291905050506109e5565b005b3480156102b157600080fd5b506102ba610c07565b005b3480156102c857600080fd5b5061030b600480360360208110156102df57600080fd5b81019080803573ffffffffffffffffffffffffffffffffffffffff169060200190929190505050611968565b005b34801561031957600080fd5b50610322611a62565b6040518082815260200191505060405180910390f35b34801561034457600080fd5b506103876004803603602081101561035b57600080fd5b81019080803573ffffffffffffffffffffffffffffffffffffffff169060200190929190505050611a68565b60405180821515815260200191505060405180910390f35b3480156103ab57600080fd5b506103d8600480360360208110156103c257600080fd5b8101908080359060200190929190505050611b1b565b60405180821515815260200191505060405180910390f35b3480156103fc57600080fd5b50610405611b48565b6040518082815260200191505060405180910390f35b34801561042757600080fd5b506104546004803603602081101561043e57600080fd5b8101908080359060200190929190505050611b4e565b6040518082815260200191505060405180910390f35b34801561047657600080fd5b506104a36004803603602081101561048d57600080fd5b8101908080359060200190929190505050611b66565b60405180806020018560ff1681526020018415158152602001838152602001828103825286818151815260200191508051906020019080838360005b838110156104fa5780820151818401526020810190506104df565b50505050905090810190601f1680156105275780820380516001836020036101000a031916815260200191505b509550505050505060405180910390f35b60008054906101000a900473ffffffffffffffffffffffffffffffffffffffff1673ffffffffffffffffffffffffffffffffffffffff163373ffffffffffffffffffffffffffffffffffffffff161461059057600080fd5b61059981611a68565b15610634578073ffffffffffffffffffffffffffffffffffffffff166108fc349081150290604051600060405180830381858888f193505050501580156105e4573d6000803e3d6000fd5b508073ffffffffffffffffffffffffffffffffffffffff167f69ca02dd4edd7bf0a4abb9ed3b7af3f14778db5d61921c7dc7cd545266326de2346040518082815260200191505060405180910390a25b50565b60011515600160003373ffffffffffffffffffffffffffffffffffffffff1673ffffffffffffffffffffffffffffffffffffffff16815260200190815260200160002060009054906101000a900460ff1615151461069457600080fd5b80156106e857806002600084815260200190815260200160002060010160016101000a81548160ff021916908315150217905550426002600084815260200190815260200160002060020181905550610733565b806002600084815260200190815260200160002060010160016101000a81548160ff021916908315150217905550600060026000848152602001908152602001600020600201819055505b5050565b60008054906101000a900473ffffffffffffffffffffffffffffffffffffffff1673ffffffffffffffffffffffffffffffffffffffff163373ffffffffffffffffffffffffffffffffffffffff161461078f57600080fd5b6000600160008373ffffffffffffffffffffffffffffffffffffffff1673ffffffffffffffffffffffffffffffffffffffff16815260200190815260200160002060006101000a81548160ff0219169083151502179055508073ffffffffffffffffffffffffffffffffffffffff167f4f4bd6fc6a67e248b443f4a8f9b9e3d979fbe3f7a38206c03b1a83d8284539e060405160405180910390a250565b60011515600160003373ffffffffffffffffffffffffffffffffffffffff1673ffffffffffffffffffffffffffffffffffffffff16815260200190815260200160002060009054906101000a900460ff1615151461088a57600080fd5b600042600580540110156109e2576000600190505b60045481116109a95760011515600260006003600085815260200190815260200160002054815260200190815260200160002060010160019054906101000a900460ff16151514801561091d575042601e60026000600360008681526020019081526020016000205481526020019081526020016000206002015401105b1561099c576000600260006003600085815260200190815260200160002054815260200190815260200160002060010160016101000a81548160ff021916908315150217905550600060026000600360008581526020019081526020016000205481526020019081526020016000206002018190555081806001019250505b808060010191505061089f565b507fb7d7f3ecc42af6ba78e856baa55648b085b27a4835ed3b3bca39a769629d0bda816040518082815260200191505060405180910390a15b50565b60011515600160003373ffffffffffffffffffffffffffffffffffffffff1673ffffffffffffffffffffffffffffffffffffffff16815260200190815260200160002060009054906101000a900460ff16151514610a4257600080fd5b610a4a611c48565b8115610a7d5760405180608001604052808581526020018460ff1681526020018315158152602001428152509050610aa7565b60405180608001604052808581526020018460ff1681526020018315158152602001600081525090505b80600260008781526020019081526020016000206000820151816000019080519060200190610ad7929190611c75565b5060208201518160010160006101000a81548160ff021916908360ff16021790555060408201518160010160016101000a81548160ff0219169083151502179055506060820151816002015590505060046000815480929190600101919050555084600360006004548152602001908152602001600020819055508115610c00577fef48ce3c8f1b313390ea711fb9c29a6595582a44275a5977f70c7884fe9a0f08848460405180806020018360ff168152602001828103825284818151815260200191508051906020019080838360005b83811015610bc4578082015181840152602081019050610ba9565b50505050905090810190601f168015610bf15780820380516001836020036101000a031916815260200191505b50935050505060405180910390a15b5050505050565b60008054906101000a900473ffffffffffffffffffffffffffffffffffffffff1673ffffffffffffffffffffffffffffffffffffffff163373ffffffffffffffffffffffffffffffffffffffff1614610c5f57600080fd5b60405180608001604052806040518060400160405280600781526020017f454e472d414141000000000000000000000000000000000000000000000000008152508152602001600160ff16815260200160011515815260200142815250600260007f3ac225168df54212a25c1c01fd35bebfea408fdac2e31ddd6f80a4bbf9a5f1cb60001b81526020019081526020016000206000820151816000019080519060200190610d0e929190611c75565b5060208201518160010160006101000a81548160ff021916908360ff16021790555060408201518160010160016101000a81548160ff021916908315150217905550606082015181600201559050507f3ac225168df54212a25c1c01fd35bebfea408fdac2e31ddd6f80a4bbf9a5f1cb60001b6003600060045481526020019081526020016000208190555060046000815480929190600101919050555060405180608001604052806040518060400160405280600781526020017f454e472d424242000000000000000000000000000000000000000000000000008152508152602001600260ff1681526020016000151581526020016000815250600260007f67fad3bfa1e0321bd021ca805ce14876e50acac8ca8532eda8cbf924da56516060001b81526020019081526020016000206000820151816000019080519060200190610e5c929190611c75565b5060208201518160010160006101000a81548160ff021916908360ff16021790555060408201518160010160016101000a81548160ff021916908315150217905550606082015181600201559050507f67fad3bfa1e0321bd021ca805ce14876e50acac8ca8532eda8cbf924da56516060001b6003600060045481526020019081526020016000208190555060046000815480929190600101919050555060405180608001604052806040518060400160405280600781526020017f454e472d434343000000000000000000000000000000000000000000000000008152508152602001600360ff16815260200160011515815260200142815250600260007f4e03657aea45a94fc7d47ba826c8d667c0d1e6e33a64a036ec44f58fa12d6c4560001b81526020019081526020016000206000820151816000019080519060200190610fa9929190611c75565b5060208201518160010160006101000a81548160ff021916908360ff16021790555060408201518160010160016101000a81548160ff021916908315150217905550606082015181600201559050507f4e03657aea45a94fc7d47ba826c8d667c0d1e6e33a64a036ec44f58fa12d6c4560001b6003600060045481526020019081526020016000208190555060046000815480929190600101919050555060405180608001604052806040518060400160405280600781526020017f454e472d444444000000000000000000000000000000000000000000000000008152508152602001600460ff16815260200160011515815260200142815250600260007f48bed44d1bcd124a28c27f343a817e5f5243190d3c52bf347daf876de1dbbf7760001b815260200190815260200160002060008201518160000190805190602001906110f6929190611c75565b5060208201518160010160006101000a81548160ff021916908360ff16021790555060408201518160010160016101000a81548160ff021916908315150217905550606082015181600201559050507f48bed44d1bcd124a28c27f343a817e5f5243190d3c52bf347daf876de1dbbf7760001b6003600060045481526020019081526020016000208190555060046000815480929190600101919050555060405180608001604052806040518060400160405280600781526020017f454e472d454545000000000000000000000000000000000000000000000000008152508152602001600560ff1681526020016000151581526020016000815250600260007f6377c7e66081cb65e473c1b95db5195a27d04a7108b468890224bedbe1a8a6eb60001b81526020019081526020016000206000820151816000019080519060200190611244929190611c75565b5060208201518160010160006101000a81548160ff021916908360ff16021790555060408201518160010160016101000a81548160ff021916908315150217905550606082015181600201559050507f6377c7e66081cb65e473c1b95db5195a27d04a7108b468890224bedbe1a8a6eb60001b6003600060045481526020019081526020016000208190555060046000815480929190600101919050555060405180608001604052806040518060400160405280600781526020017f454e472d464646000000000000000000000000000000000000000000000000008152508152602001600660ff16815260200160011515815260200142815250600260007facd0c377fe36d5b209125185bc3ac41155ed1bf7103ef9f0c2aff4320460b6df60001b81526020019081526020016000206000820151816000019080519060200190611391929190611c75565b5060208201518160010160006101000a81548160ff021916908360ff16021790555060408201518160010160016101000a81548160ff021916908315150217905550606082015181600201559050507facd0c377fe36d5b209125185bc3ac41155ed1bf7103ef9f0c2aff4320460b6df60001b6003600060045481526020019081526020016000208190555060046000815480929190600101919050555060405180608001604052806040518060400160405280600781526020017f454e472d474747000000000000000000000000000000000000000000000000008152508152602001600760ff1681526020016000151581526020016000815250600260007fa82aec019867b7307551dc397acde18b541e742fa1a4e53df4ce3b02d462f52460001b815260200190815260200160002060008201518160000190805190602001906114df929190611c75565b5060208201518160010160006101000a81548160ff021916908360ff16021790555060408201518160010160016101000a81548160ff021916908315150217905550606082015181600201559050507fa82aec019867b7307551dc397acde18b541e742fa1a4e53df4ce3b02d462f52460001b6003600060045481526020019081526020016000208190555060046000815480929190600101919050555060405180608001604052806040518060400160405280600781526020017f454e472d484848000000000000000000000000000000000000000000000000008152508152602001600860ff1681526020016000151581526020016000815250600260007f48624fa43c68d5c552855a4e2919e74645f683f5384f72b5b051b71ea41d4f2d60001b8152602001908152602001600020600082015181600001908051906020019061162d929190611c75565b5060208201518160010160006101000a81548160ff021916908360ff16021790555060408201518160010160016101000a81548160ff021916908315150217905550606082015181600201559050507f48624fa43c68d5c552855a4e2919e74645f683f5384f72b5b051b71ea41d4f2d60001b6003600060045481526020019081526020016000208190555060046000815480929190600101919050555060405180608001604052806040518060400160405280600781526020017f454e472d494949000000000000000000000000000000000000000000000000008152508152602001600960ff16815260200160011515815260200142815250600260007f34fb2702da7001bf4dbf26a1e4cf31044bd95b85e1017596ee2d23aedc90498b60001b8152602001908152602001600020600082015181600001908051906020019061177a929190611c75565b5060208201518160010160006101000a81548160ff021916908360ff16021790555060408201518160010160016101000a81548160ff021916908315150217905550606082015181600201559050507f34fb2702da7001bf4dbf26a1e4cf31044bd95b85e1017596ee2d23aedc90498b60001b6003600060045481526020019081526020016000208190555060046000815480929190600101919050555060405180608001604052806040518060400160405280600781526020017f454e472d4a4a4a000000000000000000000000000000000000000000000000008152508152602001600560ff1681526020016000151581526020016000815250600260007ff8da54b5a7dd75028acb077ee61e8dde47ed37c746703ce764edf4a789eb210360001b815260200190815260200160002060008201518160000190805190602001906118c8929190611c75565b5060208201518160010160006101000a81548160ff021916908360ff16021790555060408201518160010160016101000a81548160ff021916908315150217905550606082015181600201559050507ff8da54b5a7dd75028acb077ee61e8dde47ed37c746703ce764edf4a789eb210360001b60036000600454815260200190815260200160002081905550600460008154809291906001019190505550565b60011515600160003373ffffffffffffffffffffffffffffffffffffffff1673ffffffffffffffffffffffffffffffffffffffff16815260200190815260200160002060009054906101000a900460ff161515146119c557600080fd5b60018060008373ffffffffffffffffffffffffffffffffffffffff1673ffffffffffffffffffffffffffffffffffffffff16815260200190815260200160002060006101000a81548160ff0219169083151502179055508073ffffffffffffffffffffffffffffffffffffffff167f7326a4b0242e24d5a2706cbd8418aaf98674c16c263d222c7e4d8e41539e9ec560405160405180910390a250565b60055481565b600060011515600160003373ffffffffffffffffffffffffffffffffffffffff1673ffffffffffffffffffffffffffffffffffffffff16815260200190815260200160002060009054906101000a900460ff16151514611ac757600080fd5b600160008373ffffffffffffffffffffffffffffffffffffffff1673ffffffffffffffffffffffffffffffffffffffff16815260200190815260200160002060009054906101000a900460ff169050919050565b60006002600083815260200190815260200160002060010160019054906101000a900460ff169050919050565b60045481565b60036020528060005260406000206000915090505481565b6002602052806000526040600020600091509050806000018054600181600116156101000203166002900480601f016020809104026020016040519081016040528092919081815260200182805460018160011615610100020316600290048015611c125780601f10611be757610100808354040283529160200191611c12565b820191906000526020600020905b815481529060010190602001808311611bf557829003601f168201915b5050505050908060010160009054906101000a900460ff16908060010160019054906101000a900460ff16908060020154905084565b604051806080016040528060608152602001600060ff168152602001600015158152602001600081525090565b828054600181600116156101000203166002900490600052602060002090601f016020900481019282611cab5760008555611cf2565b82601f10611cc457805160ff1916838001178555611cf2565b82800160010185558215611cf2579182015b82811115611cf1578251825591602001919060010190611cd6565b5b509050611cff9190611d03565b5090565b5b80821115611d1c576000816000905550600101611d04565b509056fea26469706673582212200c5936a06862678fb73c3728f529ee8b49474839255cd5f596fce6aea2a4d10d64736f6c63430007040033",
  "immutableReferences": {},
  "source": "// SPDX-License-Identifier: UNLICENSED\npragma solidity ^0.7.4;\n\ncontract Passport {\n    address administrator; // address of who deployed the contract (admin access for certain operations)\n    mapping(address => bool) verifiedUsers; // mapping of verified users\n    mapping(bytes32 => Citizen) public passports; // map hashes to citizens (wont be public in final implementation)\n    mapping(uint256 => bytes32) public ids;\n    uint256 public idCount = 0;\n    uint256 public lastAutoUpdate = 0;\n\n    struct Citizen {\n        string subdivisionCode; // store county code of citizen eg (GB-NBL = Northumberland)\n        uint8 age;\n        bool immunity; // a bool to represent immunity (true = immune)\n        uint256 immuneTime;\n    }\n\n    constructor() {\n        administrator = msg.sender;\n        verifiedUsers[msg.sender] = true;\n        lastAutoUpdate = block.timestamp;\n    }\n\n    modifier admin() {\n        require(msg.sender == administrator);\n        _;\n    }\n\n    modifier verified() {\n        require(verifiedUsers[msg.sender] == true);\n        _;\n    }\n\n    function addVerifiedUser(address _address) public verified {\n        verifiedUsers[_address] = true;\n        emit VerifiedUser(_address);\n    }\n\n    function removeVerifiedUser(address _address) public admin {\n        verifiedUsers[_address] = false;\n        emit UnverifiedUser(_address);\n    }\n\n    function topUp(address payable _address) public payable admin {\n        if (isVerified(_address)) {\n            _address.transfer(msg.value);\n            emit Transfer(_address, msg.value);\n        }\n    }\n\n    function isVerified(address _address) public view verified returns (bool) {\n        return verifiedUsers[_address];\n    }\n\n    function addCitizen(\n        bytes32 _hash,\n        string memory _subdivisionCode,\n        uint8 _age,\n        bool _immunityStatus\n    ) public verified {\n        Citizen memory newCitizen;\n        if (_immunityStatus) {\n            newCitizen = Citizen(\n                _subdivisionCode,\n                _age,\n                _immunityStatus,\n                block.timestamp\n            );\n        } else {\n            newCitizen = Citizen(_subdivisionCode, _age, _immunityStatus, 0);\n        }\n        passports[_hash] = newCitizen;\n\n        idCount++;\n        ids[idCount] = _hash;\n\n        if (_immunityStatus) {\n            emit ImmuneCase(_subdivisionCode, _age);\n        }\n    }\n\n    function isImmune(bytes32 _hash) public view returns (bool) {\n        return passports[_hash].immunity;\n    }\n\n    function updateImmunity(bytes32 _hash, bool _immunityStatus)\n        public\n        verified\n    {\n        if (_immunityStatus) {\n            passports[_hash].immunity = _immunityStatus;\n            passports[_hash].immuneTime = block.timestamp;\n        } else {\n            passports[_hash].immunity = _immunityStatus;\n            passports[_hash].immuneTime = 0;\n        }\n    }\n\n    function autoUpdateImmunity() public verified {\n        uint256 updateCount = 0;\n        if (lastAutoUpdate + 5 < block.timestamp) {\n            for (uint256 i = 1; i <= idCount; i++) {\n                if (\n                    passports[ids[i]].immunity == true &&\n                    passports[ids[i]].immuneTime + 30 < block.timestamp\n                ) {\n                    // change immunity of citizen if they are immune and the set time period has past (in seconds)\n                    passports[ids[i]].immunity = false;\n                    passports[ids[i]].immuneTime = 0;\n                    updateCount++;\n                }\n            }\n            emit AutoImmunityUpdate(updateCount);\n        }\n    }\n\n    event Transfer(address indexed _address, uint256 _amount);\n    event VerifiedUser(address indexed _address);\n    event UnverifiedUser(address indexed _address);\n    event ImmuneCase(string _subdivisionCode, uint8 _age);\n    event AutoImmunityUpdate(uint256 _updateCount);\n\n    function addTestingCitizens() public admin {\n        // temporary testing function to populate citizens\n        passports[\n            0x3ac225168df54212a25c1c01fd35bebfea408fdac2e31ddd6f80a4bbf9a5f1cb\n        ] = Citizen(\"ENG-AAA\", 1, true, block.timestamp);\n        ids[\n            idCount\n        ] = 0x3ac225168df54212a25c1c01fd35bebfea408fdac2e31ddd6f80a4bbf9a5f1cb;\n        idCount++;\n\n        passports[\n            0x67fad3bfa1e0321bd021ca805ce14876e50acac8ca8532eda8cbf924da565160\n        ] = Citizen(\"ENG-BBB\", 2, false, 0);\n        ids[\n            idCount\n        ] = 0x67fad3bfa1e0321bd021ca805ce14876e50acac8ca8532eda8cbf924da565160;\n        idCount++;\n\n        passports[\n            0x4e03657aea45a94fc7d47ba826c8d667c0d1e6e33a64a036ec44f58fa12d6c45\n        ] = Citizen(\"ENG-CCC\", 3, true, block.timestamp);\n        ids[\n            idCount\n        ] = 0x4e03657aea45a94fc7d47ba826c8d667c0d1e6e33a64a036ec44f58fa12d6c45;\n        idCount++;\n\n        passports[\n            0x48bed44d1bcd124a28c27f343a817e5f5243190d3c52bf347daf876de1dbbf77\n        ] = Citizen(\"ENG-DDD\", 4, true, block.timestamp);\n        ids[\n            idCount\n        ] = 0x48bed44d1bcd124a28c27f343a817e5f5243190d3c52bf347daf876de1dbbf77;\n        idCount++;\n\n        passports[\n            0x6377c7e66081cb65e473c1b95db5195a27d04a7108b468890224bedbe1a8a6eb\n        ] = Citizen(\"ENG-EEE\", 5, false, 0);\n        ids[\n            idCount\n        ] = 0x6377c7e66081cb65e473c1b95db5195a27d04a7108b468890224bedbe1a8a6eb;\n        idCount++;\n\n        passports[\n            0xacd0c377fe36d5b209125185bc3ac41155ed1bf7103ef9f0c2aff4320460b6df\n        ] = Citizen(\"ENG-FFF\", 6, true, block.timestamp);\n        ids[\n            idCount\n        ] = 0xacd0c377fe36d5b209125185bc3ac41155ed1bf7103ef9f0c2aff4320460b6df;\n        idCount++;\n\n        passports[\n            0xa82aec019867b7307551dc397acde18b541e742fa1a4e53df4ce3b02d462f524\n        ] = Citizen(\"ENG-GGG\", 7, false, 0);\n        ids[\n            idCount\n        ] = 0xa82aec019867b7307551dc397acde18b541e742fa1a4e53df4ce3b02d462f524;\n        idCount++;\n\n        passports[\n            0x48624fa43c68d5c552855a4e2919e74645f683f5384f72b5b051b71ea41d4f2d\n        ] = Citizen(\"ENG-HHH\", 8, false, 0);\n        ids[\n            idCount\n        ] = 0x48624fa43c68d5c552855a4e2919e74645f683f5384f72b5b051b71ea41d4f2d;\n        idCount++;\n\n        passports[\n            0x34fb2702da7001bf4dbf26a1e4cf31044bd95b85e1017596ee2d23aedc90498b\n        ] = Citizen(\"ENG-III\", 9, true, block.timestamp);\n        ids[\n            idCount\n        ] = 0x34fb2702da7001bf4dbf26a1e4cf31044bd95b85e1017596ee2d23aedc90498b;\n        idCount++;\n\n        passports[\n            0xf8da54b5a7dd75028acb077ee61e8dde47ed37c746703ce764edf4a789eb2103\n        ] = Citizen(\"ENG-JJJ\", 5, false, 0);\n        ids[\n            idCount\n        ] = 0xf8da54b5a7dd75028acb077ee61e8dde47ed37c746703ce764edf4a789eb2103;\n        idCount++;\n    }\n}\n",
  "sourcePath": "/Users/josh/Projects/ethereum/covid-pass/contracts/Passport.sol",
  "compiler": {
    "name": "solc",
    "version": "0.7.4+commit.3f05b770.Emscripten.clang"
  },
  "schemaVersion": "3.3.2",
  "updatedAt": "2021-02-24T16:26:48.485Z",
  "networkType": "ethereum",
  "devdoc": {
    "kind": "dev",
    "methods": {},
    "version": 1
  },
  "userdoc": {
    "kind": "user",
    "methods": {},
    "version": 1
  }
}