{
  "contractName": "Passport",
  "abi": [
    {
      "inputs": [],
      "stateMutability": "nonpayable",
      "type": "constructor"
    },
    {
      "anonymous": false,
      "inputs": [
        {
          "indexed": false,
          "internalType": "string",
          "name": "_subdivisionCode",
          "type": "string"
        },
        {
          "indexed": false,
          "internalType": "uint8",
          "name": "_age",
          "type": "uint8"
        }
      ],
      "name": "ImmuneCase",
      "type": "event"
    },
    {
      "anonymous": false,
      "inputs": [
        {
          "indexed": true,
          "internalType": "address",
          "name": "_address",
          "type": "address"
        },
        {
          "indexed": false,
          "internalType": "uint256",
          "name": "_amount",
          "type": "uint256"
        }
      ],
      "name": "Transfer",
      "type": "event"
    },
    {
      "anonymous": false,
      "inputs": [
        {
          "indexed": true,
          "internalType": "address",
          "name": "_address",
          "type": "address"
        }
      ],
      "name": "UnverifiedUser",
      "type": "event"
    },
    {
      "anonymous": false,
      "inputs": [
        {
          "indexed": true,
          "internalType": "address",
          "name": "_address",
          "type": "address"
        }
      ],
      "name": "VerifiedUser",
      "type": "event"
    },
    {
      "inputs": [
        {
          "internalType": "bytes32",
          "name": "",
          "type": "bytes32"
        }
      ],
      "name": "passport",
      "outputs": [
        {
          "internalType": "string",
          "name": "subdivisionCode",
          "type": "string"
        },
        {
          "internalType": "uint8",
          "name": "age",
          "type": "uint8"
        },
        {
          "internalType": "bool",
          "name": "immunityStatus",
          "type": "bool"
        }
      ],
      "stateMutability": "view",
      "type": "function",
      "constant": true
    },
    {
      "inputs": [
        {
          "internalType": "address",
          "name": "_address",
          "type": "address"
        }
      ],
      "name": "addVerifiedUser",
      "outputs": [],
      "stateMutability": "nonpayable",
      "type": "function"
    },
    {
      "inputs": [
        {
          "internalType": "address",
          "name": "_address",
          "type": "address"
        }
      ],
      "name": "removeVerifiedUser",
      "outputs": [],
      "stateMutability": "nonpayable",
      "type": "function"
    },
    {
      "inputs": [
        {
          "internalType": "address payable",
          "name": "_address",
          "type": "address"
        }
      ],
      "name": "topUp",
      "outputs": [],
      "stateMutability": "payable",
      "type": "function",
      "payable": true
    },
    {
      "inputs": [
        {
          "internalType": "address",
          "name": "_address",
          "type": "address"
        }
      ],
      "name": "isVerified",
      "outputs": [
        {
          "internalType": "bool",
          "name": "",
          "type": "bool"
        }
      ],
      "stateMutability": "view",
      "type": "function",
      "constant": true
    },
    {
      "inputs": [
        {
          "internalType": "bytes32",
          "name": "_hash",
          "type": "bytes32"
        },
        {
          "internalType": "string",
          "name": "_subdivisionCode",
          "type": "string"
        },
        {
          "internalType": "uint8",
          "name": "_age",
          "type": "uint8"
        },
        {
          "internalType": "bool",
          "name": "_immunityStatus",
          "type": "bool"
        }
      ],
      "name": "addCitizen",
      "outputs": [],
      "stateMutability": "nonpayable",
      "type": "function"
    },
    {
      "inputs": [
        {
          "internalType": "bytes32",
          "name": "_hash",
          "type": "bytes32"
        }
      ],
      "name": "isImmune",
      "outputs": [
        {
          "internalType": "bool",
          "name": "",
          "type": "bool"
        }
      ],
      "stateMutability": "view",
      "type": "function",
      "constant": true
    }
  ],
  "bytecode": "0x608060405234801561001057600080fd5b50336000806101000a81548173ffffffffffffffffffffffffffffffffffffffff021916908373ffffffffffffffffffffffffffffffffffffffff16021790555060018060003373ffffffffffffffffffffffffffffffffffffffff1673ffffffffffffffffffffffffffffffffffffffff16815260200190815260200160002060006101000a81548160ff021916908315150217905550610af6806100b76000396000f3fe6080604052600436106100705760003560e01c80635613d6c01161004e5780635613d6c0146101d157806388e3c5d6146102bc578063b9209e331461030d578063e0bf156b1461037457610070565b80630919afa0146100755780631bbed3211461013c57806325cb98d514610180575b600080fd5b34801561008157600080fd5b506100ae6004803603602081101561009857600080fd5b81019080803590602001909291905050506103c5565b60405180806020018460ff1681526020018315158152602001828103825285818151815260200191508051906020019080838360005b838110156100ff5780820151818401526020810190506100e4565b50505050905090810190601f16801561012c5780820380516001836020036101000a031916815260200191505b5094505050505060405180910390f35b61017e6004803603602081101561015257600080fd5b81019080803573ffffffffffffffffffffffffffffffffffffffff1690602001909291905050506104a1565b005b34801561018c57600080fd5b506101cf600480360360208110156101a357600080fd5b81019080803573ffffffffffffffffffffffffffffffffffffffff1690602001909291905050506105a0565b005b3480156101dd57600080fd5b506102ba600480360360808110156101f457600080fd5b81019080803590602001909291908035906020019064010000000081111561021b57600080fd5b82018360208201111561022d57600080fd5b8035906020019184600183028401116401000000008311171561024f57600080fd5b91908080601f016020809104026020016040519081016040528093929190818152602001838380828437600081840152601f19601f820116905080830192505050505050509192919290803560ff169060200190929190803515159060200190929190505050610696565b005b3480156102c857600080fd5b5061030b600480360360208110156102df57600080fd5b81019080803573ffffffffffffffffffffffffffffffffffffffff16906020019092919050505061083b565b005b34801561031957600080fd5b5061035c6004803603602081101561033057600080fd5b81019080803573ffffffffffffffffffffffffffffffffffffffff169060200190929190505050610935565b60405180821515815260200191505060405180910390f35b34801561038057600080fd5b506103ad6004803603602081101561039757600080fd5b81019080803590602001909291905050506109e8565b60405180821515815260200191505060405180910390f35b6002602052806000526040600020600091509050806000018054600181600116156101000203166002900480601f0160208091040260200160405190810160405280929190818152602001828054600181600116156101000203166002900480156104715780601f1061044657610100808354040283529160200191610471565b820191906000526020600020905b81548152906001019060200180831161045457829003601f168201915b5050505050908060010160009054906101000a900460ff16908060010160019054906101000a900460ff16905083565b60008054906101000a900473ffffffffffffffffffffffffffffffffffffffff1673ffffffffffffffffffffffffffffffffffffffff163373ffffffffffffffffffffffffffffffffffffffff16146104f957600080fd5b61050281610935565b1561059d578073ffffffffffffffffffffffffffffffffffffffff166108fc349081150290604051600060405180830381858888f1935050505015801561054d573d6000803e3d6000fd5b508073ffffffffffffffffffffffffffffffffffffffff167f69ca02dd4edd7bf0a4abb9ed3b7af3f14778db5d61921c7dc7cd545266326de2346040518082815260200191505060405180910390a25b50565b60008054906101000a900473ffffffffffffffffffffffffffffffffffffffff1673ffffffffffffffffffffffffffffffffffffffff163373ffffffffffffffffffffffffffffffffffffffff16146105f857600080fd5b6000600160008373ffffffffffffffffffffffffffffffffffffffff1673ffffffffffffffffffffffffffffffffffffffff16815260200190815260200160002060006101000a81548160ff0219169083151502179055508073ffffffffffffffffffffffffffffffffffffffff167f4f4bd6fc6a67e248b443f4a8f9b9e3d979fbe3f7a38206c03b1a83d8284539e060405160405180910390a250565b60011515600160003373ffffffffffffffffffffffffffffffffffffffff1673ffffffffffffffffffffffffffffffffffffffff16815260200190815260200160002060009054906101000a900460ff161515146106f357600080fd5b60405180606001604052808481526020018360ff168152602001821515815250600260008681526020019081526020016000206000820151816000019080519060200190610742929190610a15565b5060208201518160010160006101000a81548160ff021916908360ff16021790555060408201518160010160016101000a81548160ff0219169083151502179055509050508015610835577fef48ce3c8f1b313390ea711fb9c29a6595582a44275a5977f70c7884fe9a0f08838360405180806020018360ff168152602001828103825284818151815260200191508051906020019080838360005b838110156107f95780820151818401526020810190506107de565b50505050905090810190601f1680156108265780820380516001836020036101000a031916815260200191505b50935050505060405180910390a15b50505050565b60011515600160003373ffffffffffffffffffffffffffffffffffffffff1673ffffffffffffffffffffffffffffffffffffffff16815260200190815260200160002060009054906101000a900460ff1615151461089857600080fd5b60018060008373ffffffffffffffffffffffffffffffffffffffff1673ffffffffffffffffffffffffffffffffffffffff16815260200190815260200160002060006101000a81548160ff0219169083151502179055508073ffffffffffffffffffffffffffffffffffffffff167f7326a4b0242e24d5a2706cbd8418aaf98674c16c263d222c7e4d8e41539e9ec560405160405180910390a250565b600060011515600160003373ffffffffffffffffffffffffffffffffffffffff1673ffffffffffffffffffffffffffffffffffffffff16815260200190815260200160002060009054906101000a900460ff1615151461099457600080fd5b600160008373ffffffffffffffffffffffffffffffffffffffff1673ffffffffffffffffffffffffffffffffffffffff16815260200190815260200160002060009054906101000a900460ff169050919050565b60006002600083815260200190815260200160002060010160019054906101000a900460ff169050919050565b828054600181600116156101000203166002900490600052602060002090601f016020900481019282610a4b5760008555610a92565b82601f10610a6457805160ff1916838001178555610a92565b82800160010185558215610a92579182015b82811115610a91578251825591602001919060010190610a76565b5b509050610a9f9190610aa3565b5090565b5b80821115610abc576000816000905550600101610aa4565b509056fea26469706673582212203772c65c01c2df377f7e5ec0f12b8b00193cb0ae800a3a9b67a9dd18d79352d564736f6c63430007040033",
  "immutableReferences": {},
  "source": "// SPDX-License-Identifier: UNLICENSED\npragma solidity ^0.7.4;\n\ncontract Passport {\n    address administrator; // address of who deployed the contract (admin access for certain operations)\n    mapping(address => bool) verifiedUsers; // mapping of verified users\n    mapping(bytes32 => Citizen) public passport; // map hashes to citizens\n\n    struct Citizen {\n        string subdivisionCode; // store county code of citizen eg (GB-NBL = Northumberland)\n        uint8 age;\n        bool immunityStatus; // bool representing immunity status of citizen (true = immune)\n    }\n\n    constructor() {\n        administrator = msg.sender;\n        verifiedUsers[msg.sender] = true;\n    }\n\n    modifier admin() {\n        require(msg.sender == administrator);\n        _;\n    }\n\n    modifier verified() {\n        require(verifiedUsers[msg.sender] == true);\n        _;\n    }\n\n    function addVerifiedUser(address _address) public verified {\n        verifiedUsers[_address] = true;\n        emit VerifiedUser(_address);\n    }\n\n    function removeVerifiedUser(address _address) public admin {\n        verifiedUsers[_address] = false;\n        emit UnverifiedUser(_address);\n    }\n\n    function topUp(address payable _address) public payable admin {\n        if (isVerified(_address)) {\n            _address.transfer(msg.value);\n            emit Transfer(_address, msg.value);\n        }\n    }\n\n    function isVerified(address _address) public view verified returns (bool) {\n        return verifiedUsers[_address];\n    }\n\n    function addCitizen(\n        bytes32 _hash,\n        string memory _subdivisionCode,\n        uint8 _age,\n        bool _immunityStatus\n    ) public verified {\n        passport[_hash] = Citizen(_subdivisionCode, _age, _immunityStatus);\n        if (_immunityStatus) {\n            emit ImmuneCase(_subdivisionCode, _age);\n        }\n    }\n\n    function isImmune(bytes32 _hash) public view returns (bool) {\n        return passport[_hash].immunityStatus;\n    }\n\n    event Transfer(address indexed _address, uint256 _amount);\n    event VerifiedUser(address indexed _address);\n    event UnverifiedUser(address indexed _address);\n    event ImmuneCase(string _subdivisionCode, uint8 _age);\n}\n",
  "sourcePath": "/Users/josh/Projects/ethereum/covid-pass/contracts/Passport.sol",
  "compiler": {
    "name": "solc",
    "version": "0.7.4+commit.3f05b770.Emscripten.clang"
  },
  "schemaVersion": "3.3.2",
  "updatedAt": "2021-02-05T12:10:45.619Z",
  "networkType": "ethereum",
  "devdoc": {
    "kind": "dev",
    "methods": {},
    "version": 1
  },
  "userdoc": {
    "kind": "user",
    "methods": {},
    "version": 1
  }
}