{
  "contractName": "Passport",
  "abi": [
    {
      "inputs": [],
      "stateMutability": "nonpayable",
      "type": "constructor"
    },
    {
      "anonymous": false,
      "inputs": [
        {
          "indexed": false,
          "internalType": "string",
          "name": "_name",
          "type": "string"
        }
      ],
      "name": "PositiveCase",
      "type": "event"
    },
    {
      "anonymous": false,
      "inputs": [
        {
          "indexed": true,
          "internalType": "address",
          "name": "_address",
          "type": "address"
        },
        {
          "indexed": false,
          "internalType": "uint256",
          "name": "_amount",
          "type": "uint256"
        }
      ],
      "name": "Transfer",
      "type": "event"
    },
    {
      "anonymous": false,
      "inputs": [
        {
          "indexed": true,
          "internalType": "address",
          "name": "_address",
          "type": "address"
        }
      ],
      "name": "VerifiedUser",
      "type": "event"
    },
    {
      "inputs": [],
      "name": "owner",
      "outputs": [
        {
          "internalType": "address",
          "name": "",
          "type": "address"
        }
      ],
      "stateMutability": "view",
      "type": "function",
      "constant": true
    },
    {
      "inputs": [
        {
          "internalType": "uint256",
          "name": "",
          "type": "uint256"
        }
      ],
      "name": "passport",
      "outputs": [
        {
          "internalType": "uint256",
          "name": "id",
          "type": "uint256"
        },
        {
          "internalType": "string",
          "name": "name",
          "type": "string"
        },
        {
          "internalType": "bool",
          "name": "status",
          "type": "bool"
        }
      ],
      "stateMutability": "view",
      "type": "function",
      "constant": true
    },
    {
      "inputs": [
        {
          "internalType": "address",
          "name": "",
          "type": "address"
        }
      ],
      "name": "verifiedUsers",
      "outputs": [
        {
          "internalType": "bool",
          "name": "",
          "type": "bool"
        }
      ],
      "stateMutability": "view",
      "type": "function",
      "constant": true
    },
    {
      "inputs": [
        {
          "internalType": "address",
          "name": "_address",
          "type": "address"
        }
      ],
      "name": "addVerifiedUser",
      "outputs": [],
      "stateMutability": "nonpayable",
      "type": "function"
    },
    {
      "inputs": [
        {
          "internalType": "address payable",
          "name": "_address",
          "type": "address"
        }
      ],
      "name": "topUp",
      "outputs": [],
      "stateMutability": "payable",
      "type": "function",
      "payable": true
    },
    {
      "inputs": [
        {
          "internalType": "address",
          "name": "_address",
          "type": "address"
        }
      ],
      "name": "isVerified",
      "outputs": [
        {
          "internalType": "bool",
          "name": "",
          "type": "bool"
        }
      ],
      "stateMutability": "view",
      "type": "function",
      "constant": true
    },
    {
      "inputs": [
        {
          "internalType": "string",
          "name": "_name",
          "type": "string"
        },
        {
          "internalType": "bool",
          "name": "_status",
          "type": "bool"
        }
      ],
      "name": "addCitizen",
      "outputs": [],
      "stateMutability": "nonpayable",
      "type": "function"
    }
  ],
  "bytecode": "0x6080604052600060035534801561001557600080fd5b50336000806101000a81548173ffffffffffffffffffffffffffffffffffffffff021916908373ffffffffffffffffffffffffffffffffffffffff16021790555060018060003373ffffffffffffffffffffffffffffffffffffffff1673ffffffffffffffffffffffffffffffffffffffff16815260200190815260200160002060006101000a81548160ff0219169083151502179055506109e5806100bc6000396000f3fe6080604052600436106100705760003560e01c8063b733b9511161004e578063b733b9511461014b578063b9209e331461020f578063e35fe36614610276578063f9a20f6b146102dd57610070565b80631bbed3211461007557806388e3c5d6146100b95780638da5cb5b1461010a575b600080fd5b6100b76004803603602081101561008b57600080fd5b81019080803573ffffffffffffffffffffffffffffffffffffffff1690602001909291905050506103b1565b005b3480156100c557600080fd5b50610108600480360360208110156100dc57600080fd5b81019080803573ffffffffffffffffffffffffffffffffffffffff1690602001909291905050506104b0565b005b34801561011657600080fd5b5061011f6105aa565b604051808273ffffffffffffffffffffffffffffffffffffffff16815260200191505060405180910390f35b34801561015757600080fd5b506101846004803603602081101561016e57600080fd5b81019080803590602001909291905050506105ce565b60405180848152602001806020018315158152602001828103825284818151815260200191508051906020019080838360005b838110156101d25780820151818401526020810190506101b7565b50505050905090810190601f1680156101ff5780820380516001836020036101000a031916815260200191505b5094505050505060405180910390f35b34801561021b57600080fd5b5061025e6004803603602081101561023257600080fd5b81019080803573ffffffffffffffffffffffffffffffffffffffff16906020019092919050505061069d565b60405180821515815260200191505060405180910390f35b34801561028257600080fd5b506102c56004803603602081101561029957600080fd5b81019080803573ffffffffffffffffffffffffffffffffffffffff169060200190929190505050610750565b60405180821515815260200191505060405180910390f35b3480156102e957600080fd5b506103af6004803603604081101561030057600080fd5b810190808035906020019064010000000081111561031d57600080fd5b82018360208201111561032f57600080fd5b8035906020019184600183028401116401000000008311171561035157600080fd5b91908080601f016020809104026020016040519081016040528093929190818152602001838380828437600081840152601f19601f820116905080830192505050505050509192919290803515159060200190929190505050610770565b005b60008054906101000a900473ffffffffffffffffffffffffffffffffffffffff1673ffffffffffffffffffffffffffffffffffffffff163373ffffffffffffffffffffffffffffffffffffffff161461040957600080fd5b6104128161069d565b156104ad578073ffffffffffffffffffffffffffffffffffffffff166108fc349081150290604051600060405180830381858888f1935050505015801561045d573d6000803e3d6000fd5b508073ffffffffffffffffffffffffffffffffffffffff167f69ca02dd4edd7bf0a4abb9ed3b7af3f14778db5d61921c7dc7cd545266326de2346040518082815260200191505060405180910390a25b50565b60011515600160003373ffffffffffffffffffffffffffffffffffffffff1673ffffffffffffffffffffffffffffffffffffffff16815260200190815260200160002060009054906101000a900460ff1615151461050d57600080fd5b60018060008373ffffffffffffffffffffffffffffffffffffffff1673ffffffffffffffffffffffffffffffffffffffff16815260200190815260200160002060006101000a81548160ff0219169083151502179055508073ffffffffffffffffffffffffffffffffffffffff167f7326a4b0242e24d5a2706cbd8418aaf98674c16c263d222c7e4d8e41539e9ec560405160405180910390a250565b60008054906101000a900473ffffffffffffffffffffffffffffffffffffffff1681565b6002602052806000526040600020600091509050806000015490806001018054600181600116156101000203166002900480601f0160208091040260200160405190810160405280929190818152602001828054600181600116156101000203166002900480156106805780601f1061065557610100808354040283529160200191610680565b820191906000526020600020905b81548152906001019060200180831161066357829003601f168201915b5050505050908060020160009054906101000a900460ff16905083565b600060011515600160003373ffffffffffffffffffffffffffffffffffffffff1673ffffffffffffffffffffffffffffffffffffffff16815260200190815260200160002060009054906101000a900460ff161515146106fc57600080fd5b600160008373ffffffffffffffffffffffffffffffffffffffff1673ffffffffffffffffffffffffffffffffffffffff16815260200190815260200160002060009054906101000a900460ff169050919050565b60016020528060005260406000206000915054906101000a900460ff1681565b60011515600160003373ffffffffffffffffffffffffffffffffffffffff1673ffffffffffffffffffffffffffffffffffffffff16815260200190815260200160002060009054906101000a900460ff161515146107cd57600080fd5b60036000815480929190600101919050555060405180606001604052806003548152602001838152602001821515815250600260006003548152602001908152602001600020600082015181600001556020820151816001019080519060200190610839929190610904565b5060408201518160020160006101000a81548160ff0219169083151502179055509050508015610900577f224548d2cb3eb03c5f99145f7acb861e2bcda85fc3ca4408b99300e908c28b21826040518080602001828103825283818151815260200191508051906020019080838360005b838110156108c55780820151818401526020810190506108aa565b50505050905090810190601f1680156108f25780820380516001836020036101000a031916815260200191505b509250505060405180910390a15b5050565b828054600181600116156101000203166002900490600052602060002090601f01602090048101928261093a5760008555610981565b82601f1061095357805160ff1916838001178555610981565b82800160010185558215610981579182015b82811115610980578251825591602001919060010190610965565b5b50905061098e9190610992565b5090565b5b808211156109ab576000816000905550600101610993565b509056fea2646970667358221220f2d367873e760945b8a14f4db9cd21d488c0ecf7813f8cd8ed9dfbf77a3ace9d64736f6c63430007040033",
  "immutableReferences": {},
  "source": "pragma solidity ^0.7.4;\n\ncontract Passport {\n    address public owner;\n    mapping(address => bool) public verifiedUsers;\n\n    mapping(uint256 => Citizen) public passport;\n    uint256 passportCount = 0;\n\n    struct Citizen {\n        uint256 id;\n        string name;\n        bool status;\n    }\n\n    constructor() public {\n        owner = msg.sender;\n        verifiedUsers[msg.sender] = true;\n    }\n\n    modifier admin() {\n        require(msg.sender == owner);\n        _;\n    }\n\n    modifier verified() {\n        require(verifiedUsers[msg.sender] == true);\n        _;\n    }\n\n    function addVerifiedUser(address _address) public verified {\n        verifiedUsers[_address] = true;\n        emit VerifiedUser(_address);\n    }\n\n    function topUp(address payable _address) public payable admin {\n        if (isVerified(_address)) {\n            _address.transfer(msg.value);\n            emit Transfer(_address, msg.value);\n        }\n    }\n\n    function isVerified(address _address) public view verified returns (bool) {\n        return verifiedUsers[_address];\n    }\n\n    function addCitizen(string memory _name, bool _status) public verified {\n        passportCount++;\n        passport[passportCount] = Citizen(passportCount, _name, _status);\n        if (_status) {\n            emit PositiveCase(_name);\n        }\n    }\n\n    event Transfer(address indexed _address, uint256 _amount);\n    event VerifiedUser(address indexed _address);\n    event PositiveCase(string _name);\n}\n",
  "sourcePath": "/Users/josh/Projects/ethereum/covid-pass/contracts/Passport.sol",
  "compiler": {
    "name": "solc",
    "version": "0.7.4+commit.3f05b770.Emscripten.clang"
  },
  "schemaVersion": "3.3.2",
  "updatedAt": "2021-02-03T22:38:21.721Z",
  "networkType": "ethereum",
  "devdoc": {
    "kind": "dev",
    "methods": {},
    "version": 1
  },
  "userdoc": {
    "kind": "user",
    "methods": {},
    "version": 1
  }
}