{
  "contractName": "Passport",
  "abi": [
    {
      "inputs": [],
      "stateMutability": "nonpayable",
      "type": "constructor"
    },
    {
      "anonymous": false,
      "inputs": [
        {
          "indexed": false,
          "internalType": "string",
          "name": "_subdivisionCode",
          "type": "string"
        },
        {
          "indexed": false,
          "internalType": "uint8",
          "name": "_age",
          "type": "uint8"
        }
      ],
      "name": "ImmuneCase",
      "type": "event"
    },
    {
      "anonymous": false,
      "inputs": [
        {
          "indexed": true,
          "internalType": "address",
          "name": "_address",
          "type": "address"
        },
        {
          "indexed": false,
          "internalType": "uint256",
          "name": "_amount",
          "type": "uint256"
        }
      ],
      "name": "Transfer",
      "type": "event"
    },
    {
      "anonymous": false,
      "inputs": [
        {
          "indexed": true,
          "internalType": "address",
          "name": "_address",
          "type": "address"
        }
      ],
      "name": "UnverifiedUser",
      "type": "event"
    },
    {
      "anonymous": false,
      "inputs": [
        {
          "indexed": true,
          "internalType": "address",
          "name": "_address",
          "type": "address"
        }
      ],
      "name": "VerifiedUser",
      "type": "event"
    },
    {
      "inputs": [
        {
          "internalType": "uint256",
          "name": "",
          "type": "uint256"
        }
      ],
      "name": "ids",
      "outputs": [
        {
          "internalType": "bytes32",
          "name": "",
          "type": "bytes32"
        }
      ],
      "stateMutability": "view",
      "type": "function",
      "constant": true
    },
    {
      "inputs": [
        {
          "internalType": "bytes32",
          "name": "",
          "type": "bytes32"
        }
      ],
      "name": "passport",
      "outputs": [
        {
          "internalType": "bytes32",
          "name": "hashID",
          "type": "bytes32"
        },
        {
          "internalType": "string",
          "name": "subdivisionCode",
          "type": "string"
        },
        {
          "internalType": "uint8",
          "name": "age",
          "type": "uint8"
        },
        {
          "internalType": "bool",
          "name": "immunity",
          "type": "bool"
        },
        {
          "internalType": "uint256",
          "name": "immuneTime",
          "type": "uint256"
        }
      ],
      "stateMutability": "view",
      "type": "function",
      "constant": true
    },
    {
      "inputs": [],
      "name": "passportCount",
      "outputs": [
        {
          "internalType": "uint256",
          "name": "",
          "type": "uint256"
        }
      ],
      "stateMutability": "view",
      "type": "function",
      "constant": true
    },
    {
      "inputs": [
        {
          "internalType": "address",
          "name": "_address",
          "type": "address"
        }
      ],
      "name": "addVerifiedUser",
      "outputs": [],
      "stateMutability": "nonpayable",
      "type": "function"
    },
    {
      "inputs": [
        {
          "internalType": "address",
          "name": "_address",
          "type": "address"
        }
      ],
      "name": "removeVerifiedUser",
      "outputs": [],
      "stateMutability": "nonpayable",
      "type": "function"
    },
    {
      "inputs": [
        {
          "internalType": "address payable",
          "name": "_address",
          "type": "address"
        }
      ],
      "name": "topUp",
      "outputs": [],
      "stateMutability": "payable",
      "type": "function",
      "payable": true
    },
    {
      "inputs": [
        {
          "internalType": "address",
          "name": "_address",
          "type": "address"
        }
      ],
      "name": "isVerified",
      "outputs": [
        {
          "internalType": "bool",
          "name": "",
          "type": "bool"
        }
      ],
      "stateMutability": "view",
      "type": "function",
      "constant": true
    },
    {
      "inputs": [
        {
          "internalType": "bytes32",
          "name": "_hash",
          "type": "bytes32"
        },
        {
          "internalType": "string",
          "name": "_subdivisionCode",
          "type": "string"
        },
        {
          "internalType": "uint8",
          "name": "_age",
          "type": "uint8"
        },
        {
          "internalType": "bool",
          "name": "_immunityStatus",
          "type": "bool"
        }
      ],
      "name": "addCitizen",
      "outputs": [],
      "stateMutability": "nonpayable",
      "type": "function"
    },
    {
      "inputs": [
        {
          "internalType": "bytes32",
          "name": "_hash",
          "type": "bytes32"
        }
      ],
      "name": "isImmune",
      "outputs": [
        {
          "internalType": "bool",
          "name": "",
          "type": "bool"
        }
      ],
      "stateMutability": "view",
      "type": "function",
      "constant": true
    },
    {
      "inputs": [
        {
          "internalType": "bytes32",
          "name": "_hash",
          "type": "bytes32"
        },
        {
          "internalType": "bool",
          "name": "_immunityStatus",
          "type": "bool"
        }
      ],
      "name": "updateImmunity",
      "outputs": [],
      "stateMutability": "nonpayable",
      "type": "function"
    }
  ],
  "bytecode": "0x6080604052600060045534801561001557600080fd5b50336000806101000a81548173ffffffffffffffffffffffffffffffffffffffff021916908373ffffffffffffffffffffffffffffffffffffffff16021790555060018060003373ffffffffffffffffffffffffffffffffffffffff1673ffffffffffffffffffffffffffffffffffffffff16815260200190815260200160002060006101000a81548160ff021916908315150217905550610d69806100bc6000396000f3fe6080604052600436106100915760003560e01c806388e3c5d61161005957806388e3c5d6146103325780639d43114a14610383578063b9209e33146103ae578063e0bf156b14610415578063fac333ac1461046657610091565b80630919afa0146100965780631bbed3211461016b5780631edb8f72146101af57806325cb98d5146101f65780635613d6c014610247575b600080fd5b3480156100a257600080fd5b506100cf600480360360208110156100b957600080fd5b81019080803590602001909291905050506104b5565b60405180868152602001806020018560ff1681526020018415158152602001838152602001828103825286818151815260200191508051906020019080838360005b8381101561012c578082015181840152602081019050610111565b50505050905090810190601f1680156101595780820380516001836020036101000a031916815260200191505b50965050505050505060405180910390f35b6101ad6004803603602081101561018157600080fd5b81019080803573ffffffffffffffffffffffffffffffffffffffff16906020019092919050505061059d565b005b3480156101bb57600080fd5b506101f4600480360360408110156101d257600080fd5b810190808035906020019092919080351515906020019092919050505061069c565b005b34801561020257600080fd5b506102456004803603602081101561021957600080fd5b81019080803573ffffffffffffffffffffffffffffffffffffffff16906020019092919050505061072b565b005b34801561025357600080fd5b506103306004803603608081101561026a57600080fd5b81019080803590602001909291908035906020019064010000000081111561029157600080fd5b8201836020820111156102a357600080fd5b803590602001918460018302840111640100000000831117156102c557600080fd5b91908080601f016020809104026020016040519081016040528093929190818152602001838380828437600081840152601f19601f820116905080830192505050505050509192919290803560ff169060200190929190803515159060200190929190505050610821565b005b34801561033e57600080fd5b506103816004803603602081101561035557600080fd5b81019080803573ffffffffffffffffffffffffffffffffffffffff169060200190929190505050610a59565b005b34801561038f57600080fd5b50610398610b53565b6040518082815260200191505060405180910390f35b3480156103ba57600080fd5b506103fd600480360360208110156103d157600080fd5b81019080803573ffffffffffffffffffffffffffffffffffffffff169060200190929190505050610b59565b60405180821515815260200191505060405180910390f35b34801561042157600080fd5b5061044e6004803603602081101561043857600080fd5b8101908080359060200190929190505050610c0c565b60405180821515815260200191505060405180910390f35b34801561047257600080fd5b5061049f6004803603602081101561048957600080fd5b8101908080359060200190929190505050610c39565b6040518082815260200191505060405180910390f35b6002602052806000526040600020600091509050806000015490806001018054600181600116156101000203166002900480601f0160208091040260200160405190810160405280929190818152602001828054600181600116156101000203166002900480156105675780601f1061053c57610100808354040283529160200191610567565b820191906000526020600020905b81548152906001019060200180831161054a57829003601f168201915b5050505050908060020160009054906101000a900460ff16908060020160019054906101000a900460ff16908060030154905085565b60008054906101000a900473ffffffffffffffffffffffffffffffffffffffff1673ffffffffffffffffffffffffffffffffffffffff163373ffffffffffffffffffffffffffffffffffffffff16146105f557600080fd5b6105fe81610b59565b15610699578073ffffffffffffffffffffffffffffffffffffffff166108fc349081150290604051600060405180830381858888f19350505050158015610649573d6000803e3d6000fd5b508073ffffffffffffffffffffffffffffffffffffffff167f69ca02dd4edd7bf0a4abb9ed3b7af3f14778db5d61921c7dc7cd545266326de2346040518082815260200191505060405180910390a25b50565b60011515600160003373ffffffffffffffffffffffffffffffffffffffff1673ffffffffffffffffffffffffffffffffffffffff16815260200190815260200160002060009054906101000a900460ff161515146106f957600080fd5b806002600084815260200190815260200160002060020160016101000a81548160ff0219169083151502179055505050565b60008054906101000a900473ffffffffffffffffffffffffffffffffffffffff1673ffffffffffffffffffffffffffffffffffffffff163373ffffffffffffffffffffffffffffffffffffffff161461078357600080fd5b6000600160008373ffffffffffffffffffffffffffffffffffffffff1673ffffffffffffffffffffffffffffffffffffffff16815260200190815260200160002060006101000a81548160ff0219169083151502179055508073ffffffffffffffffffffffffffffffffffffffff167f4f4bd6fc6a67e248b443f4a8f9b9e3d979fbe3f7a38206c03b1a83d8284539e060405160405180910390a250565b60011515600160003373ffffffffffffffffffffffffffffffffffffffff1673ffffffffffffffffffffffffffffffffffffffff16815260200190815260200160002060009054906101000a900460ff1615151461087e57600080fd5b610886610c51565b81156108c0576040518060a001604052808681526020018581526020018460ff1681526020018315158152602001600081525090506108ef565b6040518060a001604052808681526020018581526020018460ff16815260200183151581526020014281525090505b8060026000878152602001908152602001600020600082015181600001556020820151816001019080519060200190610929929190610c88565b5060408201518160020160006101000a81548160ff021916908360ff16021790555060608201518160020160016101000a81548160ff0219169083151502179055506080820151816003015590505060046000815480929190600101919050555084600360006004548152602001908152602001600020819055508115610a52577fef48ce3c8f1b313390ea711fb9c29a6595582a44275a5977f70c7884fe9a0f08848460405180806020018360ff168152602001828103825284818151815260200191508051906020019080838360005b83811015610a165780820151818401526020810190506109fb565b50505050905090810190601f168015610a435780820380516001836020036101000a031916815260200191505b50935050505060405180910390a15b5050505050565b60011515600160003373ffffffffffffffffffffffffffffffffffffffff1673ffffffffffffffffffffffffffffffffffffffff16815260200190815260200160002060009054906101000a900460ff16151514610ab657600080fd5b60018060008373ffffffffffffffffffffffffffffffffffffffff1673ffffffffffffffffffffffffffffffffffffffff16815260200190815260200160002060006101000a81548160ff0219169083151502179055508073ffffffffffffffffffffffffffffffffffffffff167f7326a4b0242e24d5a2706cbd8418aaf98674c16c263d222c7e4d8e41539e9ec560405160405180910390a250565b60045481565b600060011515600160003373ffffffffffffffffffffffffffffffffffffffff1673ffffffffffffffffffffffffffffffffffffffff16815260200190815260200160002060009054906101000a900460ff16151514610bb857600080fd5b600160008373ffffffffffffffffffffffffffffffffffffffff1673ffffffffffffffffffffffffffffffffffffffff16815260200190815260200160002060009054906101000a900460ff169050919050565b60006002600083815260200190815260200160002060020160019054906101000a900460ff169050919050565b60036020528060005260406000206000915090505481565b6040518060a001604052806000801916815260200160608152602001600060ff168152602001600015158152602001600081525090565b828054600181600116156101000203166002900490600052602060002090601f016020900481019282610cbe5760008555610d05565b82601f10610cd757805160ff1916838001178555610d05565b82800160010185558215610d05579182015b82811115610d04578251825591602001919060010190610ce9565b5b509050610d129190610d16565b5090565b5b80821115610d2f576000816000905550600101610d17565b509056fea26469706673582212207b7cd238abeacf5ff62a9a224a51f1a4d1897e947e061372816c722f5676f68064736f6c63430007040033",
  "immutableReferences": {},
  "source": "// SPDX-License-Identifier: UNLICENSED\npragma solidity ^0.7.4;\n\ncontract Passport {\n    address administrator; // address of who deployed the contract (admin access for certain operations)\n    mapping(address => bool) verifiedUsers; // mapping of verified users\n    mapping(bytes32 => Citizen) public passport; // map hashes to citizens (wont be public in final implementation)\n    mapping(uint256 => bytes32) public ids;\n    uint256 public passportCount = 0;\n\n    struct Citizen {\n        bytes32 hashID;\n        string subdivisionCode; // store county code of citizen eg (GB-NBL = Northumberland)\n        uint8 age;\n        bool immunity; // a bool to represent immunity (true = immune)\n        uint256 immuneTime;\n    }\n\n    constructor() {\n        administrator = msg.sender;\n        verifiedUsers[msg.sender] = true;\n    }\n\n    modifier admin() {\n        require(msg.sender == administrator);\n        _;\n    }\n\n    modifier verified() {\n        require(verifiedUsers[msg.sender] == true);\n        _;\n    }\n\n    function addVerifiedUser(address _address) public verified {\n        verifiedUsers[_address] = true;\n        emit VerifiedUser(_address);\n    }\n\n    function removeVerifiedUser(address _address) public admin {\n        verifiedUsers[_address] = false;\n        emit UnverifiedUser(_address);\n    }\n\n    function topUp(address payable _address) public payable admin {\n        if (isVerified(_address)) {\n            _address.transfer(msg.value);\n            emit Transfer(_address, msg.value);\n        }\n    }\n\n    function isVerified(address _address) public view verified returns (bool) {\n        return verifiedUsers[_address];\n    }\n\n    function addCitizen(\n        bytes32 _hash,\n        string memory _subdivisionCode,\n        uint8 _age,\n        bool _immunityStatus\n    ) public verified {\n        Citizen memory newCitizen;\n        if (_immunityStatus) {\n            newCitizen = Citizen(\n                _hash,\n                _subdivisionCode,\n                _age,\n                _immunityStatus,\n                0\n            );\n        } else {\n            newCitizen = Citizen(\n                _hash,\n                _subdivisionCode,\n                _age,\n                _immunityStatus,\n                block.timestamp\n            );\n        }\n        passport[_hash] = newCitizen;\n\n        passportCount++;\n        ids[passportCount] = _hash;\n\n        if (_immunityStatus) {\n            emit ImmuneCase(_subdivisionCode, _age);\n        }\n    }\n\n    function isImmune(bytes32 _hash) public view returns (bool) {\n        return passport[_hash].immunity;\n    }\n\n    function updateImmunity(bytes32 _hash, bool _immunityStatus)\n        public\n        verified\n    {\n        passport[_hash].immunity = _immunityStatus;\n    }\n\n    event Transfer(address indexed _address, uint256 _amount);\n    event VerifiedUser(address indexed _address);\n    event UnverifiedUser(address indexed _address);\n    event ImmuneCase(string _subdivisionCode, uint8 _age);\n}\n\n// TODO: Add timed function which changes immunity status after 14 days (from addition to the blockchain)\n// TODO: Have citizens indexed by an integer, and then every 24 hours change immunity status from true = false if 14 days has passed\n// TODO: Check if citizen exists before doing immunity checks\n",
  "sourcePath": "/Users/josh/Projects/ethereum/covid-pass/contracts/Passport.sol",
  "compiler": {
    "name": "solc",
    "version": "0.7.4+commit.3f05b770.Emscripten.clang"
  },
  "schemaVersion": "3.3.2",
  "updatedAt": "2021-02-23T20:18:53.395Z",
  "networkType": "ethereum",
  "devdoc": {
    "kind": "dev",
    "methods": {},
    "version": 1
  },
  "userdoc": {
    "kind": "user",
    "methods": {},
    "version": 1
  }
}